:400000000010002011000000B5030000B503000008B500F081FA00F0CFF90000F7B572B680220021D200554800F0EDFF802200215348D20000F0E7FF0023191C514C1859E1
:400040001034C2B20192071CFF2297434A00A4180022019ED5B2AE4209D05500665D6519B446BC446D78664635700132F1E7C0B204330918102BE1D1434BC02292041A60F8
:40008000424B99221A60424A00231360414A80211160414AC9031160404A40211160404AC021490311603F4A312113603E4B02221A603E4B802019603D4B3E491A60992317
:4000C0001B040B603C49000608603C493C200B603B4B8021890519603A493B4B19603B4B19780A431A703A4A117881431420014311701A7816210A431A70364A8023116893
:40010000DB020B431360344B141C1878334BC0B21978334BC9B21A78172A05D9314A58789978033B9342F6D12F4B192218602F4B052019602E4B1A6000F05EFD2D4B052061
:400140001A782D4BD2B21A6000F09EFE22682B4B134023602A4A2B4B1A602B4B10221A602A4B20221A602A4B802212061A60294A294B1A60294A2A4B1A60F7BD00300F40BF
:4001800000400F402410000004000140100001400C000140000004400800044000010440080104400803044000040440080404401804044000500F4004500F4010500F403F
:4001C00018500F40100001002001054000700F4001700F4000010B40CCF1FF0FCDF1FF0FC9F1FF0FBDF1FF0F1CFF0B4020FF0B402CFF0B40E5F1FF0F28FF0B40FFFFFBFF57
:400200000600008004010B40080202402002024008010B401000008000000240AF0400804000024010B5064C2378002B07D1054B002B02D0044800E000BF0123237010BDEC
:40024000F0000020000000002010000008B5084B002B03D00748084900E000BF07480368002B03D0064B002B00D0984708BDC0460000000020100000F4000020D00000200F
:400280000000000010B562B600F0ACFC00280ED16524012000F0E2FD00F0A4FC002806D1013CE4B2002CF4D1034B40221A6000F08BFC00F0DBFAFEE7C000002008B500F01E
:4002C00015FB00F04DFB00F0B5FB08BD70B5054B0D1C161C0024C9B21C8000F09FFB3580201C70BD0C010020F0B50A275F4387B003900591151C00262D4CBE4219DA00F0E6
:400300001DFB80B220802388002B0CD00220268800F0A4FD00F012FB80B220802388B6B2B342F3D807E00120013600F097FDB6B2E2E7052600E0002600272F802388002B4D
:4003400033D023889BB2019301992B885A18059992B22A808A4221D2019ABB189BB2029302998F4209D07B1C9BB20493039BDF1900F0CAFA3870049FF2E772B62388019AF8
:400380009B1A9BB2238062B6039A5318013B1B78172B08D0052000F061FD04E02B8000F0DFFA052601E0029FC8E7301C07B0F0BD0C010020FEE7000070B51048104B013895
:4003C000421C15D01E685C689D680022A118AA4203D0B158A1500432F8E7DA680D1C4C1B944202D0002410C1F9E710330138E7E700F0DAFDFFF746FFFEE7C046010000003B
:400400007410000008B500239A00032B02D80D49895800E00C490D4801338150302BF3D1FFF7FCFD0A4B00221A600A4B1A68002A00D11A608023DB051A6801210A431A60B7
:4004400008BDC04600000000B503000000000020C8000020C0000020004770B5051C0E1C141C002802D0002000F0EAFC0020002C05D0013CAA19125D8318D8B2F7E770BD7A
:40048000013808B509282AD8C901494200F078FD0507090B0D0F1614181B154B08E0154B12E0154B0DE0154B0EE0154B00E0154BC9180878C0B21AE0134B02E0134B00E0A0
:4004C000134BC9180FE0134BC9180B7848788A780002120410431843CB781B0606E0002000F0AEFC00210B7848780002184308BDC07F0000C17F0000C57F0000C97F0000EF
:40050000D07F0000D17F0000D67F0000D27F0000D47F0000D87F00000C4B10B51A6810231A400B4B00D11A601A68802A0DD100240220211C1C60FFF7A3FFA04205D0211C6B
:400540000220FFF79DFFFFF787FF10BD00030B40C0000020F8B5051C291C0320FFF790FF291C041C0420FFF78BFF671CFF013F18291C0320FFF784FF00240130C001261C79
:40058000B84209D203785A1ED2B2FD2A00D801261C19E4B20130F3E70120291CFFF770FF6442E4B20623844203D17242564176423340181CF8BD0000F0B5A44CA544FFF756
:4005C0007DFE62B600260096002506AC03AE9621201C4900321CFF23FFF786FE0028F4D13188062900D88AE022780423012A54D1E778A2783F021743E2195679B44616796F
:400600000196FE1D8E427FD89279172A45D1FB189BB2002B08D09CA98D4ECA1892191278013B801880B2F3E7019B614640420A0280B21A43082382422FD167E0342B00D040
:400640009DE0009901295AD1032F58D151A80021802200F0D8FC802551A948192639ED19FA1EFF39ADB200F0C5FC832D49D1A079637900021843774B36021B6880191A68BB
:4006800080B2D3099BB2560601D001339BB298427BD20127009700250A2300210120207068466A46437681766B4600200E32D8760B1D11809BB29CAFFE18654F013BF61954
:4006C00036789BB2801980B2002BF4D19CAE624F7318DE194042614F80B23070DE19000A30705F4807311B181720187089B2201C9623FFF7EBFD68E7009E012E1BD0042315
:40070000CBE70126009600250323C6E763782679181C31380A2801D90523BEE700F03AFCECFF1400FCFF8EFF3F00FCFF430054008EFF63008B00002FE1D1381CFFF70AFF35
:4007400043424341237173E000980128D7D1012FD5D1002ED3D13F4B1B681B68DA0BD2B2DB09DBB2002A01D080235B0023711B0A6371FF23A3710023E37104218EE7009BA6
:40078000012BBCD1022FBAD966E751A900F048FA002800D07DE701260096051C12E0009F012FACD110E7009E012EA8D19623EE195B009E42A8D851A948193A1C07A900F0C2
:4007C00019FCB5B2002368E7002F98D104AB254A191C41CA41C107AA41CB41C2012600963B1C08215AE70098012888D1032F86D1A37962791B021A43310251180192C901C8
:4008000000208022FFF729FE071C002E0ED10199FF290BD1311C0520FFF732FE311C3F1A0620FFF72DFEFFB23F1AFFB27F4227710023012132E70020FFF78CFE002802D179
:40084000094B80221A6000F0FDFA58E78CFDFFFFA7FDFFFFD4000020ACFDFFFFADFDFFFFAEFDFFFF48100000C000002038B50020FFF770FE0025A84200D00625124C00209C
:400880002368C0211A68C03AFFF7E7FD62681378181AC0B2984203D123681B68002B02D1002000F0CDFA094B19681A1C402901D0002D03D000231360FFF77EFE80221A6083
:4008C00000F0C0FA38BDC046D4000020C000002008B5054B8022196812060A431A600A2000F09AFA08BDC0460000064010B5054C2378002B03D100F0BFF801232370FFF7AD
:40090000E7FF10BD10010020094B0A4A1968136899420BD011684B1C4039481E814149420B400549C85C1360C0B200E000207047B0010020280100206C010020064B074ACB
:400940001B6811688B4202D31068181A02E012684133981A7047C046B0010020280100200C4A0D4B002130B5106811601D68802464022C431C601D68084C2C401C60084BAB
:400980001C68084B1C60084B19700849084B1960106030BDC80F064004030640FFFFFEFF28010020B0010020AD010020ED0F0000C00F0640124910B50A68531C3F3A541E44
:4009C000A241524213400F4A1468A342FBD00C681268944208D10C4A14680F222240082A02D00A4B18600AE0094C02222260094CC0B2E0540B60084B19680A431A6010BD22
:400A000024010020200100200802064040020640800F06402C010020880F064038B5041C4518AC4204D02078FFF7C4FF0134F8E738BD00000B4A0023116810B513600A4B55
:400A400080201C684002204318601C68074820401860074B1868074B186002239943116010BDC046880F064004020640FFFFFEFF20010020240100201D4A1E4B10B51A60F0
:400A80001D4B00241C601D4B01221A601C491D4B07200B601C4908601C490A200C601C490A601C4A13601C4B1C6000F0BFF90A20032100F091F919490A2000F081F9184BAE
:400AC00004221C60174B1C60174B1C60174B1C60174B1A60174B1C60174B1C60174B1C60174B1C70174B1C60174B1C6010BDC0460B00000200000640400006404800064060
:400B0000000306400700008004030640100306404400064000020640040206409D0E0000880E0640C80E0640480F0640080F0640C80F0640880F0640B00100202801002070
:400B4000AD01002024010020200100200E4B8422D2041A601968802252020A431A600B490B4A0A60196819600A4BC32189001960094B00211960094B1C211960084B1A6087
:400B8000084A094B1A60704700010540080105401027000024010540380105402801054014010540881300000C01054008B500F02DF8044B01211A680A431A6000F02AF858
:400BC00008BDC0460000054010B5054C2378002B03D1FFF7BBFF01232370FFF7E7FF10BD18010020024B18680006C00F7047C04604000440000000000230800804D0C046B1
:400C00000138FDD1C046C046C0467047EFF3108072B6704780F310887047C046C046C046F0B50024CBB0069404900794FF2800D9A4E0A14200D1A1E008AD8022281C00F06E
:400C4000D9F9231C211C221C029498002858002802D01218014302930133202BF5D1002A05D1002900D08EE00191039102E0002001900390484F7F2328AE291C80222AA87D
:400C80002897464C736000F0B5F9454A454B266013602168090F0A2903D022680F23134000E000230693069F002F69D1FFF7AEFF3D4A3E4B116807971960069B0590002B56
:400CC00014D13B4A04982892289A01040A43289228AA22603249374A0A602268120F0A2A03D02E4B1A680F2313400693069F002F38D1019A002A35D0391C8022281C00F00F
:400D000082F90298039A08A983005A50224B2AA8289380227F23736000F06CF9214820492660086023681B0F0A2B03D01B4B1F680F231F400697069B002B13D11E4A049871
:400D40002892289A01040A43289215491B4A26600A602268120F0A2A03D0104B1A680F2313400693079B002B04D1104A0E481268026007930598FFF74DFF01E00423069343
:400D800006984BB0F0BD02998B00E85801210390EA5001916EE7C046B6D7000008000040040000400400008008010B401C010020B6D8000005000080B6D900000600008055
:400DC0001F2800D901BE034A80008318186819607047C0464000002038B5041C0D1E032D00D901BE1F2C00D901BEFFF70FFFA308084A9B009B18032214409440196806345C
:400E0000A2409143A5400C1C2C431C60FFF702FF38BDC04600E400E01F23184001238340181C014B1860704700E100E01F23184001238340181C014B1860704780E100E0EC
:400E400001BE7047034B04491A6892B20A431A607047C0460CED00E00400FA0510B5041C8022074B1202944205D91868FFF7C4FE044BE418F4E758686043FFF7BDFE10BD5B
:400E8000DC0000200080FFFF08B5034B1B7A5843FFF7B2FE08BDC046DC000020274B10B51B68002B00D09847254B1B685A071DD5244B1B681A0716D0234B244A1868116868
:400EC0004B1C40394C1EA14149420B40204909688B4203D11F4B20221A70E9E71E49C0B2C8541360E4E71D4B04221A601C4B1B689A0721D51B4B1A680F231340082B18D02B
:400F0000194B1A4A1968136899420DD011684B1C3F39481E814149420B401549C85C1549C0B208601360E5E7134B02211A688A431A60124B02221A6010BDC0461401002099
:400F4000CC0F06400803064040030640B001002028010020AD0100206C010020C00F06408C0F06400802064024010020200100202C01002040020640880F0640800F0640AE
:400F800002B4714649084900095C49008E4402BC7047C04603B47146490840004900095E49008E4403BC704770B50E4B0E4D0024ED1AAD101E1CAC4204D0A300F358984765
:400FC0000134F8E700F044F8084B094D0024ED1AAD101E1CAC4204D0A300F35898470134F8E770BD5C1000005C1000005C1000006410000010B50023934203D0CC5CC4548E
:401000000133F9E710BD031C8218934202D019700133FAE770470000A8100000EE0000000000000001330F4003410F4004430F4002600F40E61062048E04D84018808C40AD
:40104000C608E608020111019311C804111E0101F8B5C046F8BC08BC9E4670474D02000005040000F8B5C046F8BC08BC9E4670472502000088100000D0000020200000004B
:40108000C80000000000000000000000181000001C1000000000E02EC05D00001800000000366E01000000000000000000000000000000000000000000000000000000002C
:4010C00000000000000000000000000000000000000000000000000000000000000000000000000000000000000000000000000000000000000000000000000000000000F0
:4011000000100020111100002D3800002D38000010B5024B83F3088802F090FB00100020F7B572B60122614B00211A7080226048D20004F091FB80220021D2005D4804F0B6
:401140008BFB0022FF2511005B4E28365A4BD0584B000700284009184800013001333018AF43F31801900198834207D0581E0078C0190400187802332070F4E70432282AA8
:40118000E4D14E4A4E4B4F491A604F4A4F4B3C241A604F4A4F4B50481A60EE224F4B1A6099234F4A1B0413604E4A13604E4A11604E4A4F4913604F4A116001214E4A1360EC
:4011C00002224E4B19604E4B1A600378A343283C234303704B48A4180378234303708720494B4A4C18604A484A4B1860FF234A4803604A4804604A484A4C01604A4918201C
:401200000B604A494A4B196012214A4B19604A494A4B1960C0214A4B89011960494B1A60494B05321A60494A494B1A6080222368D2021343236002F0ADFB2268454B802124
:4012400013402360444A454B09061A603022444B1A60444B203A1A60434B10321A60434B0F3A1A60424B20321A608222414B12061A600023404A23601160404A40490A605F
:4012800040490A604049414A11604149414A11604149424A1160424A1360424A424B1A608022424BD2031A60F7BDC0461C700F4000300F4000400F40345A0000303333339F
:4012C000040001400000939C3333333008000140FFFF00000C00014001700F401000014000500F4010500F4018500F4020500F400000D23928500F4030500F402000004047
:4013000000800F4000700F4000000440B06DDB00B69DD8000800044000010440080104401801044000010B4000020440B66DDB0008020440000304407172C700080304405F
:401340000C0304401803044000040440A40D000008040440FFFFFBFF0600008004010B40080202400C0202401C020240200202403002024008010B40000002400E000080AC
:4013800040000240800002405F0900800400024076010080440002403F0100C0840002400C020B40044004008000104000031A4010B5064C2378002B07D1054B002B02D0A8
:4013C000044800E000BF0123237010BD48010020000000008C580000084B10B5002B03D00749084800E000BF07480368002B00D110BD064B002BFBD09847F9E70000000053
:401400004C0100208C580000C80000200000000000220023F0B5002403255F4E5F4F326073605F4BFF321C705E4B85B01C705E4B3C701C705D4B1C705D4B1C805D4B1C701F
:401440005D4B1A705D4B1D705D4B1C7002F022FE02F0AAFE02F058FF5A4802F003FF5A4802F0B8FB02F0A8FB62B602F069FF02F05BFB564802F066FB5549200002F084FB90
:4014800003F028FD0A21012003F0BEF92100280000F010FA00F088FF8020000601F090F93F4B039500933F4B0193404B0293009B1B78012B16D1029B464D1978280000F037
:4014C00013FF01280BD1444C2800216800F0D2FA424B20601B78002B01D100F0DDF90023009A43E0019B1B78012B40D13B78012B16D800F0B1FF314D374C287823798342BA
:401500000CD0E0230130DB040006184001F058F9274B188800F056FF2B78237102233B703B78022B19D133687268134312D003F019FB040003F0FEFA0100200003F080F9C4
:4015400073688B4206D802D13368834202D85A23029A13706B461B7B3B703B78022B03D900F092FD01233B700023019A13701B4B1878012801D0022806D1174C216800F032
:401580007FF8206800F088F902F002FD00288ED102F09EF98BE7C046A00200206F0200209402002074020020A80200209C0200209202002075020020A9020020F8010020EC
:4015C0007302002079210000A5210000009F2400B1210000F90100206401002015020020F8B5F025F0270F21244B2D045E7B1A7B187A3F03360512043A402E4016430840C6
:4016000030430200DE7A9C7A3607360C3243F02624023601344022431000FF225C7A2401144004431A78D87911400007014398790206F0200005104001435879FF22000588
:4016400005400D431979D87809040F4029009D7800073943000C2D023540014329435D7820002D012A4011430D0001F01CF82900200003F0EBFA0120F8BDC046AA020020BA
:4016800070B505000C0001282AD103F053FA0F22010D11403031A172010C11403031E1723A2120232173010B000A114002403031303223706370A370E37023716371A37194
:4016C000E37123726372E37323746374A374E37423756375A375E3756173A2732B00D6E00023022800D0D2E003F024FA050003F039FA03000F20290D01403031E170290CB5
:401700000140303121713A216171290B01403031A171290A01403031E1712E212022217229090140284022706270A2703030E272303122736273574A6172A072906801388E
:4017400006282DD803F090FE040A0E141A2026005322A2732232E273073A20E04D22A273223208E05422A2732132E273103A16E05722A2730E32E273013A10E05422A273A5
:401780001432E2730A320AE04622A2732C32E273093A04E05322A2730E32E273133222740F2020211A0D02403032A2741A0C02403032E2741A0E10401B0FC018013861741E
:4017C000217501230B2862D803F04EFE060C141A222A323A424A525A4A2363751733A3750D3322E0462363751F33A375033BE375613B4CE04D2363751433A375113304E092
:40180000412363752F33A3750233E375713B3EE04D2363751433A3751833E375783B36E04A2363752B33A375073BE3756D3B2EE04A2363752B33A375093BE3756B3B26E07A
:40184000412363753433A3750E3BE375663B1EE0532363751233A3750B33E3756F3B16E04F2363751433A3751133E375733B0EE04E2363752133A3750733E375753B06E0CE
:40188000442363752133A375023BE375623B180070BDC0465803002070B5050017242100013C2878E4B201F095FE0135FF2CF6D1012070BD70B50C0002281BD003281CD035
:4018C000012825D103F036F9050003F04BF900230F21072B02D89A00060003E02E000D4A9A189200D64032000A40E25401330F2BEFD10BE0FFF774FE0BE000F000FF040099
:4019000000F010FF0100200003F0A0F9012000E0002070BDF8FFFF3F70B5002406281AD803F0A2FD06040D1013151800264C12E000200021254B0024186059600BE0E124BC
:40194000A40008E0E124E40005E0214C03E0E124240100E01F4C631E1F4A9BB2934211D803F000F9050003F0E5F80100280002F067FF0023220080185941144B186059600A
:4019800020001DE0104B00209C4219D10F4C236862681343834213D003F0E4F8050003F0C9F80100280002F04BFF22686368121A8B41100019003C22002303F0EBFD013029
:4019C00002F028FF70BDC046FFFF0000A00200208C0A000018150000FDFF000010B5040003F0A8F80A2283029B0F53430003000F1818472323701D336532E370411F443B77
:401A00006270A2702371062908D86D21A2710332E271043A61712272043919E00C3805280ED8612363710533A3710E33E3710F3B23720D336372043BA372E27222730CE06F
:401A4000652276216271E2710932A17122720D39A272073A6172E2722373637320230120A373E37323746374A374E3742375637510BD0000F0B5182589B0CE4B01902A003B
:401A8000002102A81C8803F0E7FE002304278026C94ACA481370019A7642527E17402A400199C95C002F07D1002A06D0DDB2012B03D90C3D012D00D93143C1540133182BB2
:401AC000EED1019B1B7E002B0AD1BC4B1B78422B06D1BA4B5B786F2B02D1B848FFF77EFF019B1B7EDA0705D54022144202D1FF218C4314439A0705D50822144202D1FF21A7
:401B00008C4314435A0706D51022144203D1FF218C431443A4B21A0706D50122144203D1FF218C431443A4B2DB0600D403E204231C4203D1FF2294431C43A4B2A04902A833
:401B400003F09CFE02A99D4803F08EFE9D4F002806D19A489C49193003F090FE19233B709A4902A803F08AFE02A9944803F07CFE974E051E0DD138708020FF22954B000536
:401B80001A7000F01DFE280000F01AFE924B35701D703B78002B57D08F4B90491B78002B23D18C4E02A833787F2B0DD903F066FE02A9824803F058FE051E45D188490120E8
:401BC000FFF778FE35703FE003F058FE02A97B4803F04AFE051E37D1FFF702FDFF23280033703D7000F0ECFD2EE0357802A86B1E052B1FD803F042FE02A9704803F034FE60
:401C0000002821D1012D04D1FFF786FE754B1C4006E02800FFF780FE80239B001C43A4B20020307000F0CCFD64486F49193003F025FE09E003F022FE02A9604803F014FEEC
:401C4000002801D101233370614E3778002F00D0D6E000225F4B9A56002A00DA27E1574E5F4D3300697B193330317176297B4D20303159703A219970E97A2F373031D970BA
:401C8000A97A9200303119712E215971697A30319971297A98723031D971202119725972E8793030D872A8795F73303018734420987368793030D87328795F7430301874EA
:401CC00059209874E8783030D874A878303018756878D97530305875287830309875434BD05800F06DFD8020000500F069FD404902A803F0C3FD02A9300003F0B5FD314FED
:401D000000280CD1334B1B7801335BB20E2B02D0304A137001E02F4B187019233B70354902A803F0ABFD02A9300003F09DFD002809D1284A1378013B5BB2002B00DA0D23D2
:401D4000137019233B702C4902A803F097FD02A9300003F089FD00280FD11E4B23491B7838315BB2EA5CC95C914201D1E85401E00132EA541922134B1A70204902A803F052
:401D80007DFD02A9300003F06FFD002800D08EE0104B13491B785BB2CA5C002A03D1134A3832D25C00E0013ACA541922054B1A707DE0C04692020020150200206901002073
:401DC000DE58000075020020F758000010590000A8020020A90200201602002029590000AA020020FFFD000042590000985800005B590000745900008D590000A659000056
:401E0000904D91491935280003F038FD012F02D12D232B741CE0022F03D131232B74043316E0032F03D133232B74033B10E0042F03D134232B7401330AE0052F03D1362395
:401E40002B74063B04E0062F03D139232B74093B6B74C020800200F0B3FC8020000500F0AFFC7A4902A803F009FD02A9754803F0FBFC002809D133780133DBB2062B00D906
:401E8000012319223370724B1A70724902A803F0F5FC02A96B4803F0E7FC002807D13378013BDBB2002B00D1062333707DE76A4902A803F0E3FC634D02A9280003F0D4FC47
:401EC00000281FD10130FFF727FD2F00634BC6B21E701937002E07D16149380003F0CEFCFF235E4A13700AE05E49380003F0C6FC0F2033090640303330363B737E73192387
:401F0000534A1370524B1E78002E05D029002800193103F0B3FC0EE00222534B534D1A700023EB56013306D0300000F049FCFF232B704A4B1E70019B1B7E9A0606D580222F
:401F4000144203D1FF218C431443A4B25B0606D502231C4203D1FF2294431C43A4B2019B5A7E80235B01D10706D51C4208D102218C43A4B21C4303E01C4201D03C4B1C4062
:401F800080235B00910704D51C4206D11C43A4B203E01C4201D0374B1C4023B252070BD5002B05DB344B01201C43A4B200F0F0FC00222D4B1A7003E0002B01DA6404640CA9
:401FC000019B5A7E80231B0112070AD51C4204D11C430220A4B200F0DBFC0022224B1A7003E01C4201D0254B1C40019B5A7E8023DB00D2060AD51C4204D11C430320A4B23A
:4020000000F0C6FC0022184B1A7003E01C4201D01B4B1C40019B5B7E9A0602D50121124A11705B0602D502220F4B1A70154B1A88A24203D020001C8000F0C4F9014809B0BC
:40204000F0BDC04669010020BF5900008D59000075020020A6590000D859000016020020F15900000A5A000015020020A9020020FFEF0000FFFE00000080FFFFFFF7000017
:40208000FFFB00009202002070B502F053FD040082020A200F23920F4243210C19405218022A15D1220A1A4003006104490F4B439B183B2B0CD12C4A1088430404D52B4B91
:4020C0001840108000F07EF900210320FFF7F2FB231F274C012B09D8234B1B885B0405D42378002B02D1012001F08EFA2378012B38D1002001F0C2FA112833D10020417879
:402100001C4B0A095A730F2211401973017858720D091140DD721872997281780D091140DD719971C1780D0911405D7119718188080BD870080A10409870080910400A4093
:402140001A705870FFF74CFA8020074AC00113881843108000F036F92378012B02D1022001F052FA012070BD92020020FFBFFFFF73020020AA02002010B502F093F80123FC
:40218000184209D0054A1370054A1378002B01D0013B137002F078F810BDC04674020020750200200122014B1A7070479402002010B502F099FE10BD10B502F073FF02F087
:4021C00085FF2E4C206001F02FFF00281AD12C4A236899182B4A914205D801222A4B1A702A4B187042E02A4A9B182A4A93423DD9254B294A1870254B18701378002B35D073
:40220000013B16E0226825481400923CFF3C1E49214B84420FD81A78032A01D801321A700B78012B22D10020184A1D491378C854013313701AE01B4812181B4882420CD809
:402240001A78032A01D801321A70097801290DD10E4A13481378C154EAE700220A700B490A701A78002A01D0013A1A70002002F027FF02F03FFF01F0DFFE10BD98020020E3
:4022800067C5FFFF861300007102002072020020B3E2FFFF3208000070020020820300001702002087FAFFFF4A04000000230B4A10B513700A4A13700A4A1378002B01D0D8
:4022C000013B137002F0EEFE002002F0F9FE02F011FF012002F02EFF10BDC046710200207202002070020020F0B58BB003AD01900C001C220021280003F0AEFA08231C21B3
:402300002B7028000F336C70EB7601F0EFFC01F07FFC1C28FBD1002601F07AFC104F041E05D001F05DFCB8550136F6B2F4E701F0E9FC01F07BFC28001C2101F0D7FC3B78F5
:402340002000082B0AD1FB7E172B07D13B195B78019A135501341B2CF8D101200BB0F0BD5302002013B501AC6170207002F0BEF8210000230222402002F026F9022400288A
:4023800001D0AB200FE002F09BF82042FBD002F097F880239B001840041EF2D102F08AF80228EED1200016BD002110B50800FFF7D9FF04210120FFF7D5FF002001F0FCFDBE
:4023C000012010BDF0B5224B85B01A780090062A06D8204B995C07339B5C0191029302E00023029301930624E31CDBB203930123009EA51C671CEDB2FFB21E400DD0002194
:402400002000FFF7AFFF00213800FFF7ABFF01992800FFF7A7FF02990CE031002000FFF7A1FF31003800FFF79DFF31002800FFF799FF10210398FFF795FF009B04345B08A5
:40244000E4B20093462CCFD1012005B0F0BDC046F8010020235A000010B501F0B3FE022001F0C4FE0028FAD0002001F0D5FE84B201F0B2FE304B187806285AD802F0F4FFC9
:402480001F1714100C0804002C4A94421AD950E0CC212B4A49000DE0E0212A4A490009E09A21294A490005E02849294A02E0EB21284A8900A21892B28A4203D839E0264AA5
:4024C000944236D94821254AFF31A21892B28A4201D800222CE08F21214A4900A21892B28A4201D8012223E0A3211E4A4900A21892B28A4201D802221AE01B4AA218BA2AB8
:4025000001D8032214E0FE21184A4900A21892B28A4201D804220BE0154A1649A21892B28A4201D8052203E0134A944201D806221A70002010BDC046F8010020790E00006F
:40254000A5F2FFFFECF3FFFFA7F4FFFF76020000A4F6FFFFD7F9FFFFA206000048F1FFFF67F2FFFFAEF3FFFF69F4FFFF66F6FFFF99F9FFFF320300006606000070B504008E
:40258000012001F025FD012001F0FAF9082501262000304000D0012001F032FD012001F0EFF9012001F020FD012001F0E9F9013D002001F019FDEDB20120640801F0E0F975
:4025C000002DE5D12800802601F01AFD08357642012001F0D5F9640801F01EFD002801D03443E4B2012001F0FFFC012001F0C8F9013D002001F0F8FCEDB2012001F0C0F942
:40260000002DE5D1280001F0FBFC280001F0E0FC200070BDF8B5060001200D0001F0D8FC012001F0ADF9082401273000384000D0012001F0E5FC012001F0A2F9012001F089
:40264000D3FC012001F09CF9013C002001F0CCFCE4B20120760801F093F9002CE5D1012608342800304000D0012001F0C9FC012001F086F9012001F0B7FC012001F080F9B7
:40268000013C002001F0B0FCE4B201206D0801F077F9002CE5D1200001F0B2FC200001F097FC0120F8BD70B504000D008E200021FFF7B0FF7F26210080203140FFF7AAFF58
:4026C000210A3140240C8220FFF7A4FF2100403E31408420FFF79EFF290C31408620FFF799FFE900C90E8820FFF794FFE9B28C20FFF790FFAB219020FFF78CFF70BD10B506
:402700008520FFF73BFF3F23184004028320FFF735FF04438120FFF731FF7F2324021840204310BD70B58920FFF728FF1F23184005028720FFF722FF3F23184004008D2024
:40274000FFF71CFF80232C439B0124041843204370BD70B50E001500002483062ED53F23184001F0DFFB300001F0D6FB0A2001F007F9AB0702D5200001F0DAFB6B0702D545
:40278000002001F0E1FB2B0702D5002001F0E8FB0A2001F0F5F8002001F0EEFB0A2001F0EFF8012001F0E8FB012001F0C1FB012001F0CAFB012001F0D3FB0124200070BD3F
:4027C000F8B5051E1BDA002001F0B2FB002001F0BBFB002001F0C4FB002001F0E1FBC82001F0CEF8012001F0DBFB012001F0A0FB012001F0A9FB012001F0B2FBC4E0E02382
:40280000FF22DB04120603409B18C0225F4ED204934228D8302001F085FB07233078184001F07AFB012001F0ABF8002001F080FB002001F089FB002001F092FB0A2001F070
:402840009FF8002001F098FB0A2001F099F8012001F092FB012001F06BFB012001F074FB012001F07DFB802424052C403020002C19D001F057FB0F2330781840073B18439F
:4028800001F04AFB012001F07BF8002001F050FB002001F059FB002001F062FB0A2001F06FF8002016E001F03DFB07233078184001F032FB012001F063F8200001F038FB74
:4028C000200001F041FB200001F04AFB0A2001F057F8200001F050FB0A2001F051F8012001F04AFB012001F023FB012001F02CFB012001F035FB2B0246D000260127340044
:402900002000072C06D90838C0B2072802D920001038C0B201F006FB2800F040384000D0012001F0F9FA072C03D8002001F000FB09E02300083B0020072B02D801F004FBB3
:4029400001E001F00DFB0A2001F01AF8002001F013FB0A2001F014F8012001F00DFB072C03D8012001F0E4FA09E02300083B0120072B02D801F0E8FA01E001F0F1FA0134B1
:40298000E4B20136182CBBD10120F8BDF801002070B50500012800D060E10E2200212020FFF7D7FE0E2200212820FFF7D2FE0E2200212920FFF7CDFE0E2200212A20FFF780
:4029C000C8FE0E2204212B20FFF7C3FE0E2200212C20FFF7BEFE0E2200212D20FFF7B9FE0E2200212E20FFF7B4FE0E2229002020FFF7AFFE0E2200212820FFF7AAFE0E2236
:402A000000212920FFF7A5FE0E2200212A20FFF7A0FE0E2200212B20FFF79BFE0E220C212C20FFF796FE0E222D201100FFF791FE0E220C212E20FFF78CFE0E220221202035
:402A4000FFF787FE0E220C212820FFF782FE0E2229201100FFF77DFE0E220C212A20FFF778FE0E2200212B20FFF773FE0E2200212C20FFF76EFE0E2200212D20FFF769FEB5
:402A80000E2200212E20FFF764FE0E2203212020FFF75FFE0E220C212820FFF75AFE0E2229201100FFF755FE0E220C212A20FFF750FE0E2200212B20FFF74BFE0E220C214F
:402AC0002C20FFF746FE0E222D201100FFF741FE0E220C212E20FFF73CFE0E2205212020FFF737FE0E2200212820FFF732FE0E2200212920FFF72DFE0E2200212A20FFF7E6
:402B000028FE0E2200212B20FFF723FE0E221F212C20FFF71EFE0E221F212D20FFF719FE0E221F212E20FFF714FE0E2206212020FFF70FFE0E221F212820FFF70AFE0E22DE
:402B40001F212920FFF705FE0E221F212A20FFF700FE0E2200212B20FFF7FBFD0E2200212C20FFF7F6FD0E2200212D20FFF7F1FD0E2200212E20FFF7ECFD0E22072120207D
:402B8000FFF7E7FD0E221F212820FFF7E2FD0E221F212920FFF7DDFD0E221F212A20FFF7D8FD0E2200212B20FFF7D3FD0E221F212C20FFF7CEFD0E221F212D20FFF7C9FD48
:402BC0000E221F212E20FFF7C4FD0E2208212020FFF7BFFD0E2208212820FFF7BAFD0E2208212920FFF7B5FD0E222A201100FFF7B0FD0E2200212B20FFF7ABFD0E222C2099
:402C00001100FFF7A6FD0E220C212D20FFF7A1FD0E220A212E20FFF79CFD0E2209212020FFF797FD0E2200212820FFF792FD0E2229201100FFF78DFD0E2200212A20FFF797
:402C400088FD0E2200212B20FFF783FD0E2200212C20FFF77EFD0E22110052E2022800D059E20E2200212020FFF773FD0E2200212820FFF76EFD0E2200212920FFF769FD1E
:402C80000E2200212A20FFF764FD0E2200212B20FFF75FFD0E2200212C20FFF75AFD0E2200212D20FFF755FD0E2204212E20FFF750FD0E2201212020FFF74BFD0E2200215D
:402CC0002820FFF746FD0E2200212920FFF741FD0E2200212A20FFF73CFD0E2200212B20FFF737FD0E2200212C20FFF732FD0E2204212D20FFF72DFD0E220A212E20FFF7D2
:402D000028FD0E2229002020FFF723FD0E2200212820FFF71EFD0E2200212920FFF719FD0E2200212A20FFF714FD0E2200212B20FFF70FFD0E2200212C20FFF70AFD0E2265
:402D400004212D20FFF705FD0E221B212E20FFF700FD0E2203212020FFF7FBFC0E2200212820FFF7F6FC0E2200212920FFF7F1FC0E2200212A20FFF7ECFC0E2200212B20A8
:402D8000FFF7E7FC0E2204212C20FFF7E2FC0E220A212D20FFF7DDFC0E2211212E20FFF7D8FC0E2204212020FFF7D3FC0E2200212820FFF7CEFC0E2200212920FFF7C9FCCC
:402DC0000E2200212A20FFF7C4FC0E2200212B20FFF7BFFC0E2204212C20FFF7BAFC0E221B212D20FFF7B5FC0E2200212E20FFF7B0FC0E2205212020FFF7ABFC0E220021C3
:402E00002820FFF7A6FC0E2200212920FFF7A1FC0E2200212A20FFF79CFC0E2204212B20FFF797FC0E220A212C20FFF792FC0E2211212D20FFF78DFC0E2200212E20FFF745
:402E400088FC0E2206212020FFF783FC0E2200212820FFF77EFC0E2200212920FFF779FC0E2200212A20FFF774FC0E2204212B20FFF76FFC0E221B212C20FFF76AFC0E226E
:402E800000212D20FFF765FC0E2200212E20FFF760FC0E2207212020FFF75BFC0E2200212820FFF756FC0E2200212920FFF751FC0E2204212A20FFF74CFC0E220A212B2036
:402EC000FFF747FC0E2211212C20FFF742FC0E2200212D20FFF73DFC0E2200212E20FFF738FC0E2208212020FFF733FC0E2200212820FFF72EFC0E2200212920FFF729FCF5
:402F00000E2204212A20FFF724FC0E221B212B20FFF71FFC0E2200212C20FFF71AFC0E2200212D20FFF715FC0E2200212E20FFF710FC0E2209212020FFF70BFC0E2200213D
:402F40002820FFF706FC0E2204212920FFF701FC0E220A212A20FFF7FCFB0E2211212B20FFF7F7FB0E2200212C20FFF7F2FB0E2200212D20FFF7EDFB0E2200212E20FFF7C8
:402F8000E8FB0E220A212020FFF7E3FB0E2200212820FFF7DEFB0E2204212920FFF7D9FB0E221B212A20FFF7D4FB0E2200212B20FFF7CFFB0E2200212C20FFF7CAFB0E2290
:402FC00000212D20FFF7C5FB0E2200212E20FFF7C0FB0E220B212020FFF7BBFB0E2204212820FFF7B6FB0E220A212920FFF7B1FB0E2211212A20FFF7ACFB0E2200212B20A6
:40300000FFF7A7FB0E2200212C20FFF7A2FB0E2200212D20FFF79DFB0E2200212E20FFF798FB0E220C212020FFF793FB0E2204212820FFF78EFB0E221B212920FFF789FB08
:403040000E2200212A20FFF784FB0E2200212B20FFF77FFB0E2200212C20FFF77AFB0E2200212D20FFF775FB0E2200212E20FFF770FB0E220D212020FFF76BFB0E222820B6
:403080001100FFF766FB0E2211212920FFF761FB0E2200212A20FFF75CFB0E2200212B20FFF757FB0E2200212C20FFF752FB0E2200212D20FFF74DFB0E2200212E20FFF78E
:4030C00048FB0E2220201100FFF743FB0E221F212820FFF73EFB0E2200212920FFF739FB0E2200212A20FFF734FB0E2200212B20FFF72FFB0E2200212C20FFF72AFB0E22C9
:4031000000212D20FFF725FB0E2200212E20FFF720FB01245CE20024032800D058E221000E222020FFF715FB21000E222820FFF710FB21000E222920FFF70BFB21000E2287
:403140002A20FFF706FB21000E222B20FFF701FB21000E222C20FFF7FCFA21000E222D20FFF7F7FA21000E222E20FFF7F2FA0E2201212020FFF7EDFA21000E222820FFF7F3
:40318000E8FA21000E222920FFF7E3FA21000E222A20FFF7DEFA21000E222B20FFF7D9FA21000E222C20FFF7D4FA21000E222D20FFF7CFFA0E221F212E20FFF7CAFA0E228C
:4031C00002212020FFF7C5FA21000E222820FFF7C0FA21000E222920FFF7BBFA21000E222A20FFF7B6FA21000E222B20FFF7B1FA21000E222C20FFF7ACFA21000E222D20D4
:40320000FFF7A7FA0E221F212E20FFF7A2FA0E2229002020FFF79DFA21000E222820FFF798FA21000E222920FFF793FA21000E222A20FFF78EFA21000E222B20FFF789FA15
:4032400021000E222C20FFF784FA0E221F212D20FFF77FFA0E221F212E20FFF77AFA0E2204212020FFF775FA21000E222820FFF770FA21000E222920FFF76BFA21000E22B0
:403280002A20FFF766FA21000E222B20FFF761FA21000E222C20FFF75CFA0E221F212D20FFF757FA0E221F212E20FFF752FA0E2205212020FFF74DFA21000E222820FFF732
:4032C00048FA21000E222920FFF743FA21000E222A20FFF73EFA21000E222B20FFF739FA0E221F212C20FFF734FA0E221F212D20FFF72FFA0E221F212E20FFF72AFA0E226D
:4033000006212020FFF725FA21000E222820FFF720FA21000E222920FFF71BFA21000E222A20FFF716FA21000E222B20FFF711FA0E221F212C20FFF70CFA0E221F212D2010
:40334000FFF707FA0E221F212E20FFF702FA0E2207212020FFF7FDF921000E222820FFF7F8F921000E222920FFF7F3F921000E222A20FFF7EEF90E221F212B20FFF7E9F91B
:403380000E221F212C20FFF7E4F90E221F212D20FFF7DFF90E221F212E20FFF7DAF90E2208212020FFF7D5F921000E222820FFF7D0F921000E222920FFF7CBF921000E2212
:4033C0002A20FFF7C6F90E221F212B20FFF7C1F90E221F212C20FFF7BCF90E221F212D20FFF7B7F90E221F212E20FFF7B2F90E2209212020FFF7ADF921000E222820FFF775
:40340000A8F921000E222920FFF7A3F90E221F212A20FFF79EF90E221F212B20FFF799F90E221F212C20FFF794F90E221F212D20FFF78FF90E221F212E20FFF78AF90E2254
:403440000A212020FFF785F921000E222820FFF780F921000E222920FFF77BF90E221F212A20FFF776F90E221F212B20FFF771F90E221F212C20FFF76CF90E221F212D2053
:40348000FFF767F90E221F212E20FFF762F90E220B212020FFF75DF921000E222820FFF758F90E221F212920FFF753F90E221F212A20FFF74EF90E221F212B20FFF749F9FA
:4034C0000E221F212C20FFF744F90E221F212D20FFF73FF90E221F212E20FFF73AF90E220C212020FFF735F921000E222820FFF730F90E221F212920FFF72BF90E221F214F
:403500002A20FFF726F90E221F212B20FFF721F90E221F212C20FFF71CF90E221F212D20FFF717F90E221F212E20FFF712F90E220D212020FFF70DF90E221F212820FFF7D0
:4035400008F90E221F212920FFF703F90E221F212A20FFF7FEF80E221F212B20FFF7F9F80E221F212C20FFF7F4F80E221F212D20FFF7EFF80E221F212E20FFF7EAF80E2259
:4035800020201100FFF7E5F80E221F212820FFF7E0F80E221F212920FFF7DBF80E221F212A20FFF7D6F80E221F212B20FFF7D1F80E221F212C20FFF7CCF80E221F212D20B4
:4035C000FFF7C7F80E221F212E20FFF7C2F80134200070BD072310B5040038208B431843072908D90B00083B072B06D91039072905D9002007E0082202E0042200E00222AE
:403600002100FFF7A6F810BD70B505000024012812D101F0B1FC01F07FFD124B12481C70124B1C70124B1C7001F00AFD114801F0D5FC114B1D7013E0022810D101F0A6FC01
:4036400001F030FD074B1C70084B1C70084B1C7001F0D8FC01F0A2FC074B1C7000E02500280070BD71020020B92100007202002070020020AD22000073020020F7B5694BAD
:403680001B783A2B01D80020CAE0674B19780029F9D11A7D012AF6D114329C5C01320919C9B21D2AF9D101242140ECD19C5C01320919C9B2242AF9D101242140E3D19C5C3C
:4036C00001320919C9B23B2AF9D1CA07DBD40A269A7E1424724311000525DA7E62438A18997DDC7D5218597E69435218197E4900091949005218597D52005218D2B2009219
:403700006A4612780270DA1CD27F724314009A1CD17F0A006A43997FA2185218591CC97FDC7F4900091949005218597F52005218D2B201926A461279190042701A00293278
:4037400012780831724314001A0028321278C97F6A43A2189C1DE47F49001419DA1DD27F8A1852005919A218CC7F52001219D4B21A001900C470303212782F310978520042
:403780005218190031310978520069438C4619002E3109786144521819002D310978520051181A00C9B281703932127894462822674657431A0037321278BC4672431E0050
:4037C000333636786244B2181E001427383636787743D7191A00363212786A431D0035352E781D0034352D7832337600AE191D78FA23BA187600DB009219ED185200019BFD
:4038000052198280182B00D93DE7009B3C2B00D939E70C2900D936E71F2C00D933E71120FEBDC046720200201702002010B501F0E7FF03680C2B00D1FEE7FEE7F8B500250D
:403840000F49104B01394A1C14D000221F685C689E68A018B24203D0B858A0500432F8E70200DE68141AA64201D020C2FAE710330139E8E701F0CAFFFDF7CAFDFEE7C0466C
:4038800001000000385C0000002370B50C480D4C0D4D9A002100032B00D8A95801338150302BF6D1FDF73CFC084B1A68002A00D11A6080220121D20513680B43136070BDC1
:4038C000000000202D38000000110000C0000020402210B5024B1A6000F046F810BDC046C00000201F2800D901BE034B8000C318186819607047C04640000020F8B5040034
:403900000E00032900D901BE1F2C00D901BE032725003D40BD400635AF40AE4001F01AFCA408054BA400E4182368BB431E43266001F014FCF8BDC04600E400E01F231840C4
:403940001E3B8340014A13607047C04600E100E01F2318401E3B8340014A13607047C04680E100E001BE7047034A044913689BB20B4313607047C0460CED00E00400FA054B
:4039800010B5034B1B7B584301F0DAFB10BDC046CC000020F0B5050087B001F0DBFBEB1E049003932D2B5CD8314B1B789D4204D8304B1C78304BE4B21EE0304B1B789D4202
:4039C00004D82F4B1C782F4BE4B215E02E4B1B789D4204D82D4B1C782D4BE4B20CE02D4B1B789D4204D82C4B1C782C4BE4B203E02B4B1C782B4BE4B21B78EA1EDBB2019378
:403A0000294B2A4F9A5C059302922F2A04D92A2D02D919263E6008E03F233E681E40029BB34205D2214B029A1A60052001F088FB1C4B1F4AED182B780520DBB213601D4B5B
:403A4000019A1C601C4B1A60FFF79AFF029BB34208D9059B039A05209B5C3B6001F070FB00E001BE049801F079FB07B0F0BDC046C0F1FF0FC1F1FF0FC2F1FF0FC3F1FF0FF0
:403A8000C4F1FF0FC5F1FF0FC6F1FF0FC7F1FF0FC8F1FF0FC9F1FF0FCAF1FF0FCBF1FF0FCCF1FF0FCDF1FF0FC05B00002CFF0B4028FF0B401CFF0B4020FF0B4010B500247F
:403AC000FA21094B094A1C601C615C609C60DC60074B89001A60074B186901F0CFFC064B1860064B1C6010BD9C010020653B00003C000020CC00002014E000E018E000E07F
:403B00000221024A13680B431360704710E000E010B5FFF7F5FF0121024A13680B43136010BDC04610E000E010B5054C6369002B03D1FFF7C3FF01236361FFF7E9FF10BD2B
:403B40009C010020024B0002000A18607047C04614E000E0024B1868C003C00F7047C04610E000E010B5FFF7F5FF012808D10024044BE358002B00D098470434142CF7D1C1
:403B800010BDC0469C010020024A8300985899507047C0469C0100208021064A10B5136809060B4313600B20FFF7C8FE00F03CF910BDC0460000074010B5054C2378002B50
:403BC00003D100F0CBF801232370FFF7E5FF10BDB4010020014B58607047C046B4010020084B094A196813680020994208D0136801331D2B00D103000449C85C1360C0B2DF
:403C00007047C04604030020E4020020C1020020044B1868044B1A681B68904200D21D30C01A704704030020E402002010B50B20FFF78EFE0B4B80211A680B4B49021A60DF
:403C400000220A4B0B201A70094B1A680A431A601968084A0A401A60074A084B1A60FFF76DFE10BDE402002004030020C002002004030740FFFFFEFFED0F0000C00F07402E
:403C8000134B144A30B515681C681900A54208D1114B1C680F232340082B02D00F4B186015E0136801331C2B00D100230C68A342FCD002210A4CC0B221600A4CE0541360D0
:403CC000094B1A680A4202D11A680A431A6030BDE0020020BC0200200802074040020740800F0740E8020020880F074070B504004518AC4204D02078FFF7C2FF0134F8E776
:403D000070BD000010B50B20FFF722FE02210C4B0B201A680B4B1A600B4A13688B43802113600A4B49021A680A431A601968084A0A401A60074A084B1A60FFF7FFFD10BD4A
:403D4000E0020020BC020020880F074004020740FFFFFEFFF3070000800F07401C4A1D4B10B51A6001221C4B1C491A601C4A1D4B0B201A6007231C4A13601C4A11601C4A44
:403D80001360FFF7E5FD03210B20FFF7B7FD19490B20FFF7A7FD00230421174A1360174A1360174A1360174A1360174A1160174A13601168164A1180164A1360164A13604A
:403DC000164A1370164A1360164A136010BDC0460F00000100000740200007400701008007030080000307400403074000020740040207403D3E0000880E0740C80E0740F4
:403E0000480F0740080F0740C80F0740880F0740BC01002004030020E4020020C0020020BC020020E0020020024B1A88024B1A607047C046BC010020880F0740254B70B5FB
:403E40001B68002B00D09847234B1B685B071CD520240F2021490B6801331D2B00D100231F4A15681F4AAB4203D113681E4B1C7004E012681D4DD2B2EA540B601C4B1B6882
:403E80000342E8D104221B4B1A601B4B1B689B071FD50F20194C1A4A21681368994210D0136801331C2B00D100231649164DC95CC9B229601360154B1B680340082BEBD16B
:403EC00004E00221124A13688B4313600222114B1A6070BDB8010020CC0F074004030020E402002040030740C0020020C102002008030740C00F07408C0F0740BC020020DD
:403F0000E0020020E80200204002074008020740880F0740800F0740014B18707047C04672000F40014B18707047C04670000F40012304490A689A43D2B2034013430B60FD
:403F40007047C046000004400223044940000A689A43D2B2034013430B607047000004400423044980000A689A43D2B2034013430B607047000004404023044980010A6853
:403F80009A43D2B2034013430B60704700020440024B18680006C00F7047C046040004400423044980000A689A43D2B2034013430B6070470004044008230449C0000A6884
:403FC0009A43D2B2034013430B607047000004404023044980010A689A43D2B2034013430B607047000004402023044940010A689A43D2B2034013430B60704700030440B8
:404000001023044900010A689A43D2B2034013430B60704700030440024B1868C006C00F7047C04604030440024B18684006C00F7047C046040304404023034A1068184056
:4040400010608009C0B270471003044002238021054A09061360054A11600021044A1160044A13607047C046C00100200000104004001040080F1040044A054B11681B688C
:404080000B43802109010B431360704704001040C001002010B5054C2379002B03D1FFF7D5FF01232371FFF7E7FF10BDC001002010B503210E20FFF721FC1C490E20FFF7EA
:4040C00011FC01221A4B1A601A4B1B68002B01DB194900E019491A4A0124136819480B431360194A194B1A491A601A4A1A4B1A6000231A4A13601A4A0A601A490A60022159
:40410000194A1360194A1360194A1460194A1160026819490A4022430260184A1360184A13808022174B92011A6010BD3942000020001A4080031A40600E0053600E10533F
:4041400000001A4030001A408100008004001A4010001A400000FF0718001A401C001A400200020014001A4028021A4038021A4018021A40000F1A40FFFFFFDF80001A4087
:404180000C03002008030020064B10B51A68002A07DB80211A6809060A431A600A20FFF7EFFB10BD00001A4010B5054C2378002B03D1FFF77DFF01232370FFF7E5FF10BD57
:4041C000C50100208021034A490213680B4313607047C04604001A40024A034B11680B401360704704001A40FFFFFEFF10B5002382070DD001240233064918400B68012283
:40420000234002D10028F9D102E0024B1A601300180010BD10021A4010B5002804D00020FFF7A0FB002002E0024B186880B200B210BDC04680011A40014B1A681A60704777
:4042400010021A4010B5040000F084FFC021044AA40113688B431C43146000F07FFF10BD00E400E010B50124044B1C60044B18640320FFF7E7FF034B1C6010BD80E100E050
:404280000000002000E100E00122014B1A60704780E200E08023024A11780B431370704773000F40014B1878C0B2704763000F400823044904480A781A4201D00288FAE7E4
:4042C0007047C04663000F4084100F4027230A4A10B51380094A138000F03CFF1021084A13780B43137000F039FFFFF7E1FF0122044B1A7010BDC04644100F4004100F40B3
:4043000093000F4083000F4010B5054C2378002B03D1FFF7DBFF01232370FFF7BBFF10BDC60100208021054A10B5136809060B4313600A20FFF702FB10BDC04600000640F8
:4043400010B5054C2378002B03D100F007F801232370FFF7E7FF10BDC80100200C2110B500241A4A0A2013680B431360184B194A1C60194B1A60194B194A1360194A146044
:40438000194A1460194A1360194B1C60FFF7E0FA03210A20FFF7B2FA16490A20FFF7A2FA1022154B1C60154B1C60154B1C60154B1C60154B1C60154B1C60154B1A70154BF1
:4043C0001C80154B1C60154B1C6010BD7000064000000640770800806000064007010080000306400403064010030640000206400402064065510000C80E0640880E064042
:40440000480F0640080F0640C80F0640880F06400E030020180300203003002020030020144A10B5136814495B005B08136000230B60124912480B60046812492140016023
:4044400011490B6011490B601149124B19601249124B19601249134B19601349134B19601021134B19708021136809060B43136010BDC04600000640680006406C0006406F
:4044800060000640FF5CFFFF880F0640C80F0640F3070000800F0640ED0F0000C00F0640FF0F0000400F064017030000000F06400E030020014B18687047C0462003002014
:4044C00010B50A20FFF744FA064B1C88064BA4B21B789B0601D504231C430A20FFF72EFA200010BD180300200E03002010B50A20FFF72EFA0022044B0A201C88A4B21A8090
:40450000FFF71CFA200010BD18030020294B70B51E68294C00F0CCF8002806D1002C47D00120FFF72DFA013CF4E7002C40D0002000F0C6F80F22214C214D2368934323606D
:404540002B685B005B082B60B30609D4002000F0B7F80A20FFF714FA01221A4B1A6019E0002000F0ADF80A20FFF70AFA012000F0A7F80A20FFF704FA0F4E00F0ADF8002820
:4045800006D1002E06D00120FFF7FAF9013EF4E7002EDBD180222B68120613430F222B60236801209343013A1343236000F088F870BDC04664000640204E00001000014021
:4045C0000000064068000640F7B506000F00019200930424002948D0264D2B78102B08D10A20FFF7B5F9244B24191B68DB073CD408E02B780424602B37D108211F4A1388EB
:404600008B43138028232B7000251D4B019A1D601C4B1A491D601C4B76001A601B4B1C481F606B461A781B4B01241A70FF2302221E400B88184F93430B80402317490B6022
:404640001749086014201749FF30086016490B60009B23401C00AB4204D0FFF757FF2C003E6002E0114B3E601A600A20FFF766F92000FEBD0E0300206400064018030020C6
:4046800028030020200300201403002024030020170300002C03002040020640800F0640000F0640080F0640880F064068000640024B18688007C00F7047C04604040440BF
:4046C000012304490A689A43D2B2034013430B607047C04600040440024B1868012318407047C0460404044010B50400830705D1642100F049FF0120002906D1C82120000B
:40470000490000F041FF4842484110BDFA2189000A000F2110B5642483049B0F5A43030A0B4063439B18020000090A400840053948439B18C01810BDF7B50F00FA210600DC
:4047400089001000150000F01FFF0C006421200000F01AFF380000910A2100F08FFE0A2103053800019300F00FFF019B30000F040A211F4300F082FE000707430A213000CD
:4047800000F002FF09060F43FA212800890000F075FE000307436421200000F06FFE000207430A21009800F0EFFE00980F430A2100F064FE00013843FEBD70B50C00150059
:4047C000022901D80C34013DC8212818AE0836184900280000F052FE64213618280000F04DFE0623584335181A2001340A21604300F044FE0721281800F0C6FE002900D18D
:404800000731080070BD0000014B03C37047C046D001002070B5002504002E0020000A2100F0B2FEB14020000D430A2100F026FE043604000928F1D8B4402000284370BD60
:40484000F0B587B0002405000F00FFF75FFF002300930194444C0290029B9C4210D22000FFF742FF009A019B002801D03F4800E03F48002112184B41013400920193EBE78E
:404880000A23EC00E40F5C432B011B0FE418631E384A5B0002989E5AFFF726FF002804D00223A342A4416442361903230A242A0D1A402B0C0F2562432B409B180293002345
:4048C0003000190003260393029A039B801859410023294A00F07EFE3B0D1E4074433E0C35400490059166193B0208D57B0203D50B2E04D80C3602E00C2E00D1039E0723FF
:40490000380B18400A2102003D092B404A4359430F240D00380A204080183C403C220023002100F057FE6319029301250023134C03936D42029A039BA4185D41009A019B30
:4049400024184D41A4185D41049A059BA4185D41E122002312013000002100F03BFE0019694107B0F0BDC046B20700000085E2018033E101EE5B00008051010080AEFEFF9F
:40498000064B10B51B18DC7D022805D10800FFF7ABFE431E98412418200010BDEE5B0000F0B516005D4A87B01F005D4B0490009200251C00BD420DD0009B361BAF4101334F
:4049C00018000093FFF790FE002801D1544BEFE7544BEDE7B342EFD901235348534C0193002302900393BB420CD0029A039BB61A9F41019B0099013318000193FFF7C0FF1F
:404A00006043EDE7B042F0D9484A00233000390000F0C0FD4549039B41430A00B14201D9002200233D003400A41A9D41E122431C0593120100232000290000F0ABFD00236C
:404A4000E121070002930C9B09017943002B0ED0002D02D1364B9C4205D9012302930C2F05D90C3F03E0002F01D102970C3700230A00AB4203D1A14201D900220023A41A5A
:404A80009D413C2200232000290000F083FD3C210600002371430A00AB4203D1A14201D900220023A41A9D410599009A0198FFF743FE049B0A2158600C9B3800DD05029B53
:404AC0009B051D4300F0DAFC000505430A21380000F05AFD09040D4330000A2100F0CEFC000305430A21300000F04EFD09020D4320000A2100F048FD20000D430A2100F040
:404B0000BDFC049B000105431D60009A01990598FFF753FE049B986007B0F0BDB20700008033E1010085E20180DE280080510100C1A8000037B500252900074C074BA068E6
:404B4000074C1A685B68009512184B412000FFF727FF20683EBDC046D0010020680300205803002037B500252900074C074BA068074C1A685B68009512184B412000FFF7B6
:404B80000FFF60683EBDC046D00100206803002058030020F0B5012585B0029003911000190016001F00FFF7EBFE2C0001900095009B039A934210D8019B9C420DD83A00E4
:404BC00031002000FFF7F9FD029B984203D12500009B013300930134EAE73A0029003000FFF7AAFD05B0F0BD002170B5164B86B01A685B680400009102A8FFF7D1FE03984D
:404C0000FFF784FD227D0300012A05D10200A1682069FFF791FD04E02269E1686068FFF7B9FF266805000A21300000F027FC0A210405300000F0A8FC090421432800FFF78C
:404C4000FFFD06B070BDC04668030020F0B58B020C000A210F229B0F4B430700200C104085B01B180393E300DB0F5943230E1A408B1820000293FFF749FD390001902000FF
:404C8000FFF7DEFD1E4D1F4E019A286069600299039874603760FFF790FDB0601A48FFF7A3FF1A4C206161611948FFF79DFFA061E161184E2A686B682069616999421AD867
:404CC00001D1904217D828686968A269E369994211D801D190420ED82868696801233370E1231B01A36001230B4A5B4212184B412A606B6002E000233370A36005B0F0BDA2
:404D0000680300205803002070030020D0010020400300203D030020F0F1FFFF184B70B5197502681A6042685A60C268DA6082689A60026918001A61FFF756FF114B124AA0
:404D4000186159611600106851681C695D690F4A8D4211D801D184420ED8346875689869D9698D4208D801D1844205D801211170E12212019A6002E000211170996070BDA2
:404D800070030020D0010020680300203D030020184B70B5197502681A6042685A60C268DA6082689A60026918001A61FFF71CFF114B124A9861D9611600106851681C6918
:404DC0005D690F4A8D4211D801D184420ED8346875689869D9698D4208D801D1844205D801211170E12212019A6002E000211170996070BD40030020D00100206803002042
:404E00003D030020F0B5012600240222274B87B01E70274B06271C60264B274D1C70274B2100DA606B461C75162368460293133BAC600094019604930397FFF76FFF6B46E5
:404E40001C7516232100029368460C3B0493009401960397FFF79CFF1948FFF7C5FE286169611848FFF7C0FEA861E961164E114C3268736828696969994210D801D19042FC
:404E80000DD830687168AA69EB69994207D801D1904204D801232370E1231B01AB600B490B48FFF7D3FE07B0F0BDC0463C030020380300203D030020D001002058030020BB
:404EC000700300204003002068030020202031124009150010B5034B1B78002B01D1FFF791FF10BD3C030020F8B51E4C236A226867689E182662BE4232D3012200231A4D0E
:404F0000F61B2868696812184B412A606B6026622868696822696369904207D1994205D10122124B1A70E1231B01A360A269E3692E686F6800252900A068121A8B41B24226
:404F40000ED1BB420CD1094B09481D70A560FFF74BFE206161610748FFF746FEA061E161F8BDC046D0010020680300203D03002070030020400300208021034A09061368EE
:404F80000B4313607047C04604000240024A13685B005B0813607047040002408022044B52021A60034B044A0433DA677047C04680E100E0000000202D38000010B5040019
:404FC00000F0C8F8C021044AA40113688B431C43146000F0C3F810BD10E400E010B58024054B64021C60054B0433D8670320FFF7E5FF034B1C6010BD80E100E0000000206F
:4050000000E100E00822034B1A60034A034BDA647047C04680E100E02D3800000000002010B5040000F096F8044AA40713689B009B081C43146000F091F810BD00E400E08B
:4050400010B50824044B1C60044BD8640320FFF7E7FF034B1C6010BD80E100E00000002000E100E08122084B92041A60074A084B1A600122074B1A60074A084B1A600022DE
:40508000074B1A607047C04600010540FF0300002401054038010540F0550000140105400801054010B500F055F80121034A13688B43136000F052F810BDC04600000540CB
:4050C000014B80B21860704708010540014B186880B270470801054070B50D000400AC4000F038F8024B1C6000F038F870BDC0460800054010B5012400F02CF8054A13683F
:405100002343136000F02AF818212000FFF7E4FF10BDC0460000054010B5054C2378002B03D1FFF79FFF01232370FFF7E3FF10BDF4010020014B18607047C046300105408E
:405140000230800804D0C0460138FDD1C046C046C0467047EFF3108072B6704780F310887047C0469F4BF7B51B68002B00D098479D4B1B68DB0702D500229C4B1A609C4B31
:405180001A78920601D4002223E09A4A00211068C00506D5C0249848A40001882143018001211268D20706D59020934980000A8802430A8001E00029E5D001220220197886
:4051C0008D4C1140411A2088014389B221800021197018781021800600D4D9E0854C206808420DD0854A844C11600122187802400220821A2088024392B222801970F0E075
:40520000187800071BD502202568054209D07B4A7949106088200A88800002430A8001220DE01878C00702D52521197007E02420187073480068002801D072480160042578
:405240001978294200D1A0E001201978014243D008266D490C68344223D06C496C4C0D686C4909682768EF1B0F252940791AB14207D8002906D16849684A0D682A400A60C9
:4052800002003100664E674D20683768013938182F68FFB207702068013020600029F3D117E00968294214D059495D4E0C68366834195C4E3668F6B226700C6801340C60BF
:4052C0000C68524909688C4202D257490D6000E00200564856494EE0022124680C4220D0464A544C11600F2253490E680D68216832408A1AE90B0840101A2060842021683A
:405300004E4A800011603C490A88024380200A804B4A400211680143116010684949014031E049490868C00627D54849424E0968334801913F490F2437680D0027400400C8
:40534000082F0FD00F68BC460768BC450AD20C68019D2C1924783E4DE4B22C600C6801340C60E8E728682168884202D140202549086038483849086007E00968490604D5F9
:405380002C4A11682D4A116008E0002A06D128E01B780B4225D1FFF743F822E01E491F4A086802400A6000222C490A6015490A602B4A127892070CD5012219780E480A409A
:4053C0000A218A1A01880A4392B2028060221A7007E0244B1A681823920600D4083B124A1360F7BDCC0100208C0E0640880E06400E0300200C0F064018030020000F064026
:4054000014030020880F0640CC0F06401C030020300300200803064060000640FFFEFFFF100300204003064068000640ED0F0000C00F06402803002008020640200300205A
:4054400004020640FFFFFEFF8C0F06402403002040020640F3070000800F0640C80F06402C0300206400064002B4714649084900095C49008E4402BC7047C04600224308E1
:405480008B4274D303098B425FD3030A8B4244D3030B8B4228D3030C8B420DD3FF22090212BA030C8B4202D31212090265D0030B8B4219D300E0090AC30B8B4201D3CB0346
:4054C000C01A5241830B8B4201D38B03C01A5241430B8B4201D34B03C01A5241030B8B4201D30B03C01A5241C30A8B4201D3CB02C01A5241830A8B4201D38B02C01A524171
:40550000430A8B4201D34B02C01A5241030A8B4201D30B02C01A5241CDD2C3098B4201D3CB01C01A524183098B4201D38B01C01A524143098B4201D34B01C01A524103097E
:405540008B4201D30B01C01A5241C3088B4201D3CB00C01A524183088B4201D38B00C01A524143088B4201D34B00C01A5241411A00D20146524110467047FFE701B50020D5
:4055800000F006F802BDC0460029F7D076E770477047C046002B11D1002A0FD1002900D1002802D00021C943081C07B4024802A14018029003BDC046D9FFFFFF03B4684688
:4055C00001B5029800F032F8019B9E4602B00CBC7047C046F0B54F464646C0B41604360C9946330005042C0C070C150C63437E436F4365431C0CAD1964199C46A64203D99B
:4056000080235B02984647446346250CEF191D044B464A4343432D0C240464199918C91920000CBC90469946F0BDC046F0B54D46564644465F46F0B4924683B004000D00D6
:4056400099468B422FD82CD04946504600F0CCF829000600200000F0C7F8331A9846203B9B4600D574E053465A4693401F005346424693401E00AF4229D826D05B46A41B8F
:40568000BD41002B00DA79E0002200230092019301235A4693400193012342469340009319E08242D0D900220023009201930C9B002B01D01C605D600098019903B03CBC5C
:4056C00090469946A246AB46F0BDA342D6D900220023009201934346002BE8D0FB0772081A4346467B080EE0AB4201D1A2420CD8A41A9D41012024196D410021013E241863
:405700004D41002E06D0AB42EED9013E24196D41002EF8D15B460098019900196941002B22DB2B005A46D3402A004446E2401C005B461500002B2CDB26009E40330026002F
:405740004746BE403200801A994100900191AEE7424620239B1A5246DA40414613004A468A4017001F4382E7424620239B1A2A0046469A402300F3401343D5E742462023F6
:4057800000219B1A0022009101920122DA40019282E74246202326009B1ADE402F00B446974066463B003343C9E7C0461C2101231B04984201D3000C10391B0A984201D367
:4057C000000A08391B09984201D30009043902A2105C40187047C0460403020201010101000000000000000010B5002903D1FFF7DDFF203002E0081CFFF7D8FF10BDC04688
:40580000014B18687047C046400100200E4B70B500251E000D4CE41AA410A54204D0AB00F35898470135F8E700F0F4F9084B00251E00084CE41AA410A54204D0AB00F358E3
:4058400098470135F8E770BD205C0000205C0000205C0000285C000003008218934202D019700133FAE7704702780B78002A03D0013001319A42F7D0D01A7047031C0A7834
:4058800001311A700133002AF9D17047000000009CFDFF7F010000000000400000002000000010000000080000000100008000000010000000080000800000004000000064
:4058C000100000000800000002000000010000000909090909030901090509050902434D443A2B4D454E552B2D2D2D2D2D2D2D2D2D2D2D2D2D2D0053657420436C6F636BE5
:405900003F2020204F4B206F7220455849542000434D443A2B455849542B2D2D2D2D2D2D2D2D2D2D2D2D2D2D00434D443A2B4F4B474F2B2D2D2D2D2D2D2D2D2D2D2D2D2DC2
:405940002D002020204175746F2D4F66662074696D65722073657420202000434D443A2B4C4546542B2D2D2D2D2D2D2D2D2D2D2D2D2D2D00434D443A2B524947542B2D2DB3
:405980002D2D2D2D2D2D2D2D2D2D2D2D00434D443A2B555055502B2D2D2D2D2D2D2D2D2D2D2D2D2D2D00434D443A2B444F574E2B2D2D2D2D2D2D2D2D2D2D2D2D2D2D005342
:4059C0006574204175746F2D4F666620696E205858206D696E3F2000434D443A2B53544F502B2D2D2D2D2D2D2D2D2D2D2D2D2D2D00536574204F66662D54696D65723F202F
:405A00004F4B202F2045584954004175746F2D4F666620696E207878206D696E75746573202000FFCC32FFCC33990F0C0B0704030100000001000F4002300F4006310F40B6
:405A400046320F4039330F4002400F4013410F400B420F4008430F4002600F40830D5B045F0168046A026B21701071408C104065410149FF4AFF4BFF4F0150185A045B04D2
:405A80005F016040624064406540668068806A806C806E80800E8220840286108C088E508F01920E9302960198049A509C3EA302B030B101B240B40EB501B601B702BF40DF
:405AC000C025C101C5ECC720C823C9FFCAFFCBFFCD83CE03CF01D018D280D401D604D804D904DA04DB04DF05E040E240E440E540E680E880EA80EC80EE8000040102020146
:405B000009A00A52180419021A1B212222402A0131023B40400441404201458049054A024E06520359055A8063806C046D846F80724073407682771479808004828083C051
:405B4000860289448F14AB20AC04AD40AF01B201C00DC20FCA01CC01CE08D01CD238D60BD801DE08E220E650E803EC0A6F10DA805220530156085F0862026302660482226C
:405B8000831187018A088E048F089F10D4E0D6C0D8C0E2A0E6B05310550858405A045F4460048C04D407D607D802E4028A049604A908AC40AF44B310E404E804010110013E
:405BC000030405060708090A0B0C0E0F101112131415161718191B1C1D1E1F2021222325262728292A2B2E2F30313233343500001F003B005A0078009700B500D400F30076
:405C0000110130014E011F1C1F1E1F1E1F1F1E1F1E1F4300F8B5C046F8BC08BC9E467047D913000089380000F8B5C046F8BC08BC9E467047B1130000485C0000C800002099
:405C4000800000004002000000000000010000000000E02EC05D00001800000000366E01000000000000000000000000000000000000000000000000000000000000000079
:405C8000125C000000000000000000000000000000000000000000000000000000000000000000000000000000000000000000000000000000000000000000000000000076
:405CC000E0000020000000000000000000000000000000000000000000000000000000000000000000000000000000000000000000000000000000000000000000000000A4
:405D00000000000000000000000000000000000000000000000000000000000000000000000000000000000000000000000000000000000000000000000000000000000063
:405D40000000000000000000000000000000000000000000000000000000000000000000000000000000000000000000000000000000000000000000000000000000000023
:405D800000000000000000000000000000000000000000000000000000000000000000000000000000000000000000000000000000000000000000000000000000000000E3
:405DC00000000000000000000000000000000000000000000000000000000000000000000000000000000000000000000000000000000000000000000000000000000000A3
:407FC0009E1111000021000000004C0000000000000001000000000000000000000000008000000000000000000000000000000000000000000000000000000000000000D3
:0200000490303A
:0200000068A0F6
:0200000490402A
:20000000FFFFFFFF00000000000000000000000000000000000000000000000000000000E4
:0200000490501A
:0C000000000204C81193110004E67A33DA
:0200000490600A
:0100000001FE
:00000001FF