:400000000010002011000000B5030000B503000008B500F081FA00F0CFF90000F7B572B680220021D200554800F0EDFF802200215348D20000F0E7FF0023191C514C1859E1
:400040001034C2B20192071CFF2297434A00A4180022019ED5B2AE4209D05500665D6519B446BC446D78664635700132F1E7C0B204330918102BE1D1434BC02292041A60F8
:40008000424B99221A60424A00231360414A80211160414AC9031160404A40211160404AC021490311603F4A312113603E4B02221A603E4B802019603D4B3E491A60992317
:4000C0001B040B603C49000608603C493C200B603B4B8021890519603A493B4B19603B4B19780A431A703A4A117881431420014311701A7816210A431A70364A8023116893
:40010000DB020B431360344B141C1878334BC0B21978334BC9B21A78172A05D9314A58789978033B9342F6D12F4B192218602F4B052019602E4B1A6000F05EFD2D4B052061
:400140001A782D4BD2B21A6000F09EFE22682B4B134023602A4A2B4B1A602B4B10221A602A4B20221A602A4B802212061A60294A294B1A60294A2A4B1A60F7BD00300F40BF
:4001800000400F402410000004000140100001400C000140000004400800044000010440080104400803044000040440080404401804044000500F4004500F4010500F403F
:4001C00018500F40100001002001054000700F4001700F4000010B40CCF1FF0FCDF1FF0FC9F1FF0FBDF1FF0F1CFF0B4020FF0B402CFF0B40E5F1FF0F28FF0B40FFFFFBFF57
:400200000600008004010B40080202402002024008010B401000008000000240AF0400804000024010B5064C2378002B07D1054B002B02D0044800E000BF0123237010BDEC
:40024000F0000020000000002010000008B5084B002B03D00748084900E000BF07480368002B03D0064B002B00D0984708BDC0460000000020100000F4000020D00000200F
:400280000000000010B562B600F0ACFC00280ED16524012000F0E2FD00F0A4FC002806D1013CE4B2002CF4D1034B40221A6000F08BFC00F0DBFAFEE7C000002008B500F01E
:4002C00015FB00F04DFB00F0B5FB08BD70B5054B0D1C161C0024C9B21C8000F09FFB3580201C70BD0C010020F0B50A275F4387B003900591151C00262D4CBE4219DA00F0E6
:400300001DFB80B220802388002B0CD00220268800F0A4FD00F012FB80B220802388B6B2B342F3D807E00120013600F097FDB6B2E2E7052600E0002600272F802388002B4D
:4003400033D023889BB2019301992B885A18059992B22A808A4221D2019ABB189BB2029302998F4209D07B1C9BB20493039BDF1900F0CAFA3870049FF2E772B62388019AF8
:400380009B1A9BB2238062B6039A5318013B1B78172B08D0052000F061FD04E02B8000F0DFFA052601E0029FC8E7301C07B0F0BD0C010020FEE7000070B51048104B013895
:4003C000421C15D01E685C689D680022A118AA4203D0B158A1500432F8E7DA680D1C4C1B944202D0002410C1F9E710330138E7E700F0DAFDFFF746FFFEE7C046010000003B
:400400007410000008B500239A00032B02D80D49895800E00C490D4801338150302BF3D1FFF7FCFD0A4B00221A600A4B1A68002A00D11A608023DB051A6801210A431A60B7
:4004400008BDC04600000000B503000000000020C8000020C0000020004770B5051C0E1C141C002802D0002000F0EAFC0020002C05D0013CAA19125D8318D8B2F7E770BD7A
:40048000013808B509282AD8C901494200F078FD0507090B0D0F1614181B154B08E0154B12E0154B0DE0154B0EE0154B00E0154BC9180878C0B21AE0134B02E0134B00E0A0
:4004C000134BC9180FE0134BC9180B7848788A780002120410431843CB781B0606E0002000F0AEFC00210B7848780002184308BDC07F0000C17F0000C57F0000C97F0000EF
:40050000D07F0000D17F0000D67F0000D27F0000D47F0000D87F00000C4B10B51A6810231A400B4B00D11A601A68802A0DD100240220211C1C60FFF7A3FFA04205D0211C6B
:400540000220FFF79DFFFFF787FF10BD00030B40C0000020F8B5051C291C0320FFF790FF291C041C0420FFF78BFF671CFF013F18291C0320FFF784FF00240130C001261C79
:40058000B84209D203785A1ED2B2FD2A00D801261C19E4B20130F3E70120291CFFF770FF6442E4B20623844203D17242564176423340181CF8BD0000F0B5A44CA544FFF756
:4005C0007DFE62B600260096002506AC03AE9621201C4900321CFF23FFF786FE0028F4D13188062900D88AE022780423012A54D1E778A2783F021743E2195679B44616796F
:400600000196FE1D8E427FD89279172A45D1FB189BB2002B08D09CA98D4ECA1892191278013B801880B2F3E7019B614640420A0280B21A43082382422FD167E0342B00D040
:400640009DE0009901295AD1032F58D151A80021802200F0D8FC802551A948192639ED19FA1EFF39ADB200F0C5FC832D49D1A079637900021843774B36021B6880191A68BB
:4006800080B2D3099BB2560601D001339BB298427BD20127009700250A2300210120207068466A46437681766B4600200E32D8760B1D11809BB29CAFFE18654F013BF61954
:4006C00036789BB2801980B2002BF4D19CAE624F7318DE194042614F80B23070DE19000A30705F4807311B181720187089B2201C9623FFF7EBFD68E7009E012E1BD0042315
:40070000CBE70126009600250323C6E763782679181C31380A2801D90523BEE700F03AFCECFF1400FCFF8EFF3F00FCFF430054008EFF63008B00002FE1D1381CFFF70AFF35
:4007400043424341237173E000980128D7D1012FD5D1002ED3D13F4B1B681B68DA0BD2B2DB09DBB2002A01D080235B0023711B0A6371FF23A3710023E37104218EE7009BA6
:40078000012BBCD1022FBAD966E751A900F048FA002800D07DE701260096051C12E0009F012FACD110E7009E012EA8D19623EE195B009E42A8D851A948193A1C07A900F0C2
:4007C00019FCB5B2002368E7002F98D104AB254A191C41CA41C107AA41CB41C2012600963B1C08215AE70098012888D1032F86D1A37962791B021A43310251180192C901C8
:4008000000208022FFF729FE071C002E0ED10199FF290BD1311C0520FFF732FE311C3F1A0620FFF72DFEFFB23F1AFFB27F4227710023012132E70020FFF78CFE002802D179
:40084000094B80221A6000F0FDFA58E78CFDFFFFA7FDFFFFD4000020ACFDFFFFADFDFFFFAEFDFFFF48100000C000002038B50020FFF770FE0025A84200D00625124C00209C
:400880002368C0211A68C03AFFF7E7FD62681378181AC0B2984203D123681B68002B02D1002000F0CDFA094B19681A1C402901D0002D03D000231360FFF77EFE80221A6083
:4008C00000F0C0FA38BDC046D4000020C000002008B5054B8022196812060A431A600A2000F09AFA08BDC0460000064010B5054C2378002B03D100F0BFF801232370FFF7AD
:40090000E7FF10BD10010020094B0A4A1968136899420BD011684B1C4039481E814149420B400549C85C1360C0B200E000207047B0010020280100206C010020064B074ACB
:400940001B6811688B4202D31068181A02E012684133981A7047C046B0010020280100200C4A0D4B002130B5106811601D68802464022C431C601D68084C2C401C60084BAB
:400980001C68084B1C60084B19700849084B1960106030BDC80F064004030640FFFFFEFF28010020B0010020AD010020ED0F0000C00F0640124910B50A68531C3F3A541E44
:4009C000A241524213400F4A1468A342FBD00C681268944208D10C4A14680F222240082A02D00A4B18600AE0094C02222260094CC0B2E0540B60084B19680A431A6010BD22
:400A000024010020200100200802064040020640800F06402C010020880F064038B5041C4518AC4204D02078FFF7C4FF0134F8E738BD00000B4A0023116810B513600A4B55
:400A400080201C684002204318601C68074820401860074B1868074B186002239943116010BDC046880F064004020640FFFFFEFF20010020240100201D4A1E4B10B51A60F0
:400A80001D4B00241C601D4B01221A601C491D4B07200B601C4908601C490A200C601C490A601C4A13601C4B1C6000F0BFF90A20032100F091F919490A2000F081F9184BAE
:400AC00004221C60174B1C60174B1C60174B1C60174B1A60174B1C60174B1C60174B1C60174B1C70174B1C60174B1C6010BDC0460B00000200000640400006404800064060
:400B0000000306400700008004030640100306404400064000020640040206409D0E0000880E0640C80E0640480F0640080F0640C80F0640880F0640B00100202801002070
:400B4000AD01002024010020200100200E4B8422D2041A601968802252020A431A600B490B4A0A60196819600A4BC32189001960094B00211960094B1C211960084B1A6087
:400B8000084A094B1A60704700010540080105401027000024010540380105402801054014010540881300000C01054008B500F02DF8044B01211A680A431A6000F02AF858
:400BC00008BDC0460000054010B5054C2378002B03D1FFF7BBFF01232370FFF7E7FF10BD18010020024B18680006C00F7047C04604000440000000000230800804D0C046B1
:400C00000138FDD1C046C046C0467047EFF3108072B6704780F310887047C046C046C046F0B50024CBB0069404900794FF2800D9A4E0A14200D1A1E008AD8022281C00F06E
:400C4000D9F9231C211C221C029498002858002802D01218014302930133202BF5D1002A05D1002900D08EE00191039102E0002001900390484F7F2328AE291C80222AA87D
:400C80002897464C736000F0B5F9454A454B266013602168090F0A2903D022680F23134000E000230693069F002F69D1FFF7AEFF3D4A3E4B116807971960069B0590002B56
:400CC00014D13B4A04982892289A01040A43289228AA22603249374A0A602268120F0A2A03D02E4B1A680F2313400693069F002F38D1019A002A35D0391C8022281C00F00F
:400D000082F90298039A08A983005A50224B2AA8289380227F23736000F06CF9214820492660086023681B0F0A2B03D01B4B1F680F231F400697069B002B13D11E4A049871
:400D40002892289A01040A43289215491B4A26600A602268120F0A2A03D0104B1A680F2313400693079B002B04D1104A0E481268026007930598FFF74DFF01E00423069343
:400D800006984BB0F0BD02998B00E85801210390EA5001916EE7C046B6D7000008000040040000400400008008010B401C010020B6D8000005000080B6D900000600008055
:400DC0001F2800D901BE034A80008318186819607047C0464000002038B5041C0D1E032D00D901BE1F2C00D901BEFFF70FFFA308084A9B009B18032214409440196806345C
:400E0000A2409143A5400C1C2C431C60FFF702FF38BDC04600E400E01F23184001238340181C014B1860704700E100E01F23184001238340181C014B1860704780E100E0EC
:400E400001BE7047034B04491A6892B20A431A607047C0460CED00E00400FA0510B5041C8022074B1202944205D91868FFF7C4FE044BE418F4E758686043FFF7BDFE10BD5B
:400E8000DC0000200080FFFF08B5034B1B7A5843FFF7B2FE08BDC046DC000020274B10B51B68002B00D09847254B1B685A071DD5244B1B681A0716D0234B244A1868116868
:400EC0004B1C40394C1EA14149420B40204909688B4203D11F4B20221A70E9E71E49C0B2C8541360E4E71D4B04221A601C4B1B689A0721D51B4B1A680F231340082B18D02B
:400F0000194B1A4A1968136899420DD011684B1C3F39481E814149420B401549C85C1549C0B208601360E5E7134B02211A688A431A60124B02221A6010BDC0461401002099
:400F4000CC0F06400803064040030640B001002028010020AD0100206C010020C00F06408C0F06400802064024010020200100202C01002040020640880F0640800F0640AE
:400F800002B4714649084900095C49008E4402BC7047C04603B47146490840004900095E49008E4403BC704770B50E4B0E4D0024ED1AAD101E1CAC4204D0A300F358984765
:400FC0000134F8E700F044F8084B094D0024ED1AAD101E1CAC4204D0A300F35898470134F8E770BD5C1000005C1000005C1000006410000010B50023934203D0CC5CC4548E
:401000000133F9E710BD031C8218934202D019700133FAE770470000A8100000EE0000000000000001330F4003410F4004430F4002600F40E61062048E04D84018808C40AD
:40104000C608E608020111019311C804111E0101F8B5C046F8BC08BC9E4670474D02000005040000F8B5C046F8BC08BC9E4670472502000088100000D0000020200000004B
:40108000C80000000000000000000000181000001C1000000000E02EC05D00001800000000366E01000000000000000000000000000000000000000000000000000000002C
:4010C00000000000000000000000000000000000000000000000000000000000000000000000000000000000000000000000000000000000000000000000000000000000F0
:401100000010002011110000554500005545000080B500AF024B83F3088803F025FAC0460010002080B500AF204B204A12688021C9020A431A60182003F0B6FD1B4B1B4A9B
:4011400012681B490A401A601A4B1B4A1A601B4B20221A601A4B10221A601A4B21221A60194B21221A60194B30221A60184B21221A60184B802212061A600C4B00221A6039
:40118000154B164A1A60164B164A1A60164B174A1A60174B174A1A60174B184A1A60184B00221A60C046BD4680BDC04600010B40FFFFFBFF04010B40060000800802024052
:4011C0000C0202402002024024020240340202403C02024008010B4000000240010000804000024010000080800002404F1200800400024076010080440002403F0100C04C
:401200000C020B4080B582B000AF72B6504B01221A70FB1D00221A7022E0FB1D1A7813005B009B185B004B4A9B183B603B681A78597809020A43997809040A43DB781B06C3
:40124000134318003B681A795B791B0213439BB2190003F027F9FB1D1A78FB1D01321A70FB1D1B78012BD8D93B4A3C4B1100180003F028F93A4BA02212011A80394B01221F
:401280001A70394B394A1A60394B99221A60394B992212041A60384B802212051A60374B992212041A60364B992212041A60354B354A1A60354BA02212061A60344B354A01
:4012C0001A60354B354A1A60354B364A1A60364B0D221A60354B0E221A60354A344B1B78DBB23C218B43DBB214210B43DBB21370304A304B1B78DBB216210B43DBB213701A
:401300002D4B2E4A1A602E4B08221A602D4B2E4A1A602E4B2E4A1A602E4BDD221A602E4B2E4A1A602E4BA022D2011A602D4B02221A602D4B31221A602C4B02221A60FFF706
:40134000F1FE03F001F9C046BD4602B080BDC0461C700F40D471000008720000E071000000600F4002600F400C000140FFFF0F001000014000500F4004500F4010500F40AC
:4013800020500F4030500F400400990034500F40D8320F40040404442001054010D608006001054010C30B002000004000800F4001700F4000700F400800044049E2180071
:4013C0000001044008010440B609000008020440B60D000000030440080304408E6D4B000C03044000040440080404401804044010B5064C2378002B07D1054B002B02D062
:40140000044800E000BF0123237010BD5001002000000000746E0000084B10B5002B03D00749084800E000BF07480368002B00D110BD064B002BFBD09847F9E7000000000C
:4014400054010020746E0000D000002000000000B0B584B000AF0F23FB1809221A700E23FB1809221A700D23FB1800221A70B14B180004F021F9B04BAF4A1268AF490A4029
:4014800040210A431A60AC4BAB4A1268AC490A40802189000A431A6003F084FD03F00EFEA84B180004F034F9A74B180003F05EFEA64B180003F0BCFE05F008F9A44B1800C3
:4014C00005F070F905F06EFAA24B180005F0D2F962B603F0EBF805F017F8112005F034F8222005F031F8992005F02EF8AA2005F02BF8C046984B1A6880239B001340F9D04D
:40150000954B802292001A6003F09CF90300BB6000F042F9914B1B78002B3BD0904B180003F0B0F98D4B1B780A21180005F0C2FA0300DBB23033180003F0F8F8874B1B7866
:401540000A21180005F03CFB0B00DBB23033180003F0ECF80D23FC1800F016FC030023700D23FB181B7809229A429B415B42DAB20D23FB1819783C20002388425B41DBB20E
:401580001340DBB2002B05D00D23FB181B78180002F0E8FC734B1A780F23FB181B789A429B415B42DAB26F4B1B780F217918097899429B415B42DBB21343DBB2002B00D12F
:4015C000A5E00F23FC1802F015F803002370664B180003F057F90F23FB181B783033180003F0A4F8614B180003F04CF95D4B1B783033180003F09AF80E23FC1800210020E0
:4016000000F064F903002370594B180003F03AF90E23FB181B783033180003F087F8554C3800554B1A78597809020A43997809040A43D97809060A43002515001A790023E5
:40164000FF210A40FF218B4313432A00012100F047FB3B002000190005231A0005F0F8FB444C3800444B1A78597809020A43997809040A43D97809060A43002515001A79A9
:401680000023FF210A40FF218B4313432A00022100F026FB3B002000190005231A0005F0D7FB364B180003F0EDF8324BDB783033180003F03BF8324B180003F0E3F82D4BC1
:4016C0001B793033180003F031F82E4B180003F0D9F8284B9B783033180003F027F82A4B180003F0CFF8234B1B783033180003F01DF8264B180003F0C5F81E4B5B783033B4
:40170000180003F013F8224B180003F0BBF8214B1B78002B06D00021002000F0D7F81D4B00221A70BB682F2B00D0EDE603F0C6F8EAE6C046007F0000080404403FFEFFFFA3
:40174000FFF1FFFF55340000BD340000ED3400001D350000C9350000000F0740B5010020786E00006C0100207C6E0000906E0000A46E0000D0010020C8010020B46E0000FB
:40178000BC6E0000C86E0000D46E0000DC6E0000EC6E0000DF01002080B582B000AF3B1D00221A703B1D00225A703B1D00229A703D4B1B78012B32D13C4B1B78002B1CD185
:4017C0003B4B3C490322002004F092F8394B1A78364B1A70374B5A78374B1A70354B9A78364B1A70314B1B78002B02D12F4B01221A702D4B00221A700FE02C4B1B78013378
:40180000DAB22A4B1A70294B1B78072B02D9274B01221A70244B00221A7001233FE0284B1B78012B1CD1214B1A783B1D1A70224B1A783B1D5A70214B1A783B1D9A701C4BA5
:40184000391D0322002004F0E9F9184B00221A70194B00221A701A4B00221A7001231EE0184B1B78012B01D1012318E0164B1B78012B13D10D4B1B78002B0CD00E4B1B78B3
:401880000133DAB20C4B1A700B4B1B78072B02D9094B01221A700C4B00221A7000231800BD4602B080BDC046710100206C010020E0010020DC0100206D0100206E01002020
:4018C000730100207001002072010020B0B586B000AF02000F23FB181A700E23FB180A1C1A701723FB1800221A701623FB1800221A701523FB1800221A700F23FB181B7861
:40190000012B65D1002003F03BFD0E23FB181B78012B1BD1D54B180002F0B4FF002003F0CDFD012003F0CAFD642003F0CDFA002003F0C4FD642003F0C7FA012003F0BEFD5D
:40194000642003F0C1FA002003F0B8FD0E23FB181B78022B0FD1C64B180002F093FF002003F0ACFD012003F0A9FD642003F0ACFA002003F0A3FD0E23FB181B78032B10D1B0
:40198000BC4B180002F07EFF002003F097FD012003F094FDB84B180003F096FA002003F08DFD0E23FB181B78042B00D08EE1B34B180002F067FF002003F05AFD012003F0E1
:4019C00057FD642003F080FA002003F051FD7DE10F23FB181B78022B00D08FE0012003F0CFFC0E23FB181B78012B1BD1A44B180002F048FF002003F061FD012003F05EFDB1
:401A0000642003F061FA002003F058FD642003F05BFA012003F052FD642003F055FA002003F04CFD0E23FB181B78022B0FD1904B180002F027FF002003F040FD012003F0C8
:401A40003DFD642003F040FA002003F037FD0E23FB181B78032B10D1864B180002F012FF002003F02BFD012003F028FD824B180003F02AFA002003F021FD0E23FB181B78EA
:401A8000042B0FD17F4B180002F0FCFE002003F0EFFC012003F0ECFC642003F015FA002003F0E6FC0E23FB181B78052B0FD1764B180002F0E7FE002003F0B2FC012003F068
:401AC000AFFC642003F000FA002003F0A9FC0E23FB181B78062B00D0F8E06C4B180002F0D1FE002003F074FC012003F071FC642003F0EAF9002003F06BFCE7E0644C38004B
:401B0000634B1A78597809020A43997809040A43D97809060A43002515001A790023FF210A40FF218B4313432A00022100F0D8F83B002000190005231A0005F089F9544BAD
:401B4000DB78002B04D11723FB1800221A70BDE003F0D0FB031E07D01723FB1804221A704C4B180002F08EFE4B4B1B68DB080122134007D01723FB1805221A70474B1800AB
:401B800002F080FE03F0D2FB031E07D01723FB1806221A70424B180002F074FE03F0E2FB031E07D01723FB1807221A703D4B180002F068FE03F0C8FB031E07D01723FB183A
:401BC00008221A70384B180002F05CFE1723FB181B78032B00D979E01523FB1800221A7014E003F095FB031E06D11623FB181A781623FB1801321A700A2003F065F915230A
:401C0000FB181522BA18127801321A701523FB181B78952BE5D91623FB181B78942B08D91723FB1801221A70204B180002F02AFE48E01623FB181A789421002391425B4182
:401C4000DBB21622BA1812783221914292415242D2B21340DBB2002B2CD01723FB1802221A70134B180002F00DFE2BE0F06E0000186F0000346F0000282300004C6F000024
:401C8000606F0000886F00009C6F0000B86F0000D0010020D06F000004040440E06F0000F06F0000007000001470000028700000387000001723FB1803221A70074B180068
:401CC00002F0E0FD1623FB1800221A701723FB181B781800BD4606B0B0BDC0464870000080B584B000AFF860080039000A604B600B23FB18021C1A700B23FB181B78012B92
:401D000013D13B001B79180003F0A0FC3B00DB78180003F02FFC3B009B78180003F060FC3B001B78180003F0F1FB03F0B7FC03001A003B001A7103F045FC03001A003B00F6
:401D4000DA7003F075FC03001A003B009A7003F003FC03001A003B001A700A4B1B689B08DBB201221340DAB23B005A70FA683B001000190005231A0005F06AF8F868BD46AE
:401D800004B080BD04040440F0B5ABB000AFA723FB1800221A70012300249822BA18136054609723FB1800221A704423FB18180040231A00002105F054F83B1D18004023F6
:401DC0001A00002105F04DF8002300248822BA18136054608723FB1800221A70CA4B1B78002B01D101F014FBC84B5B781A0050239B1ADB43DB0FD9B2C44B5B781A0050234C
:401E00009B1A0E22DC0FD0179A4244412300DBB20B40DBB21A00BD4B9B78190050235B1ADB43DB0FDBB213401900B84B9B781A0050239B1A0E22DC0FD0179A4244412300ED
:401E4000DBB20B40B14AD27811005022521A01213F2A01DC0022111CCAB21A401100AB4BDB781A0050239B1A5022DC0FD0179A4244412300DBB20B40A44A12791100502291
:401E8000521AD243D20FD2B21A4011009F4B1B791A0050239B1A0E22DC0FD0179A4244412300DBB20B40984A12781100974A525C11005022521A01212E2A01DC0022111C12
:401EC000CAB21A401100904B1B781A008F4B9B5C1A0050239B1A3F22DC0FD0179A4244412300DBB20B4001D101F08EFAA723FB1804221A7024E0A723FB181B781C1FA72380
:401F0000FB181B78814AD35C1A0050239B1A0F21180004F059FE0300DBB20133DAB24423FB181A559723FB189722BA18127801321A70A723FB18A722BA18127801321A7095
:401F4000A723FB181A78704B1B78013B9A42D2DD3B1D00221A70A723FB1800221A70BCE0A723FB181B783A1DD35C5A425341DBB2A722BA1812780132442179188A5C013A92
:401F800051424A41D2B21340DBB2002B04D08723FB1802221A7099E0A723FB181B783A1DD35C5A425341DBB2A722BA1812780132442179188A5C023A51424A41D2B21340A4
:401FC000DBB2002B07D0A723FB181B7801333A1D0021D1547AE0A723FB181B783A1DD35C5A425341DBB2A722BA1812780132442179188A5C033A51424A41D2B21340DBB211
:40200000002B07D0A723FB181B7801333A1D0121D1545BE0A723FB181B783A1DD35C013B5A425341DBB2A722BA1812780132442179188A5C013A51424A41D2B21340DBB241
:40204000002B07D0A723FB181B7801333A1D0021D1543BE0A723FB181B783A1DD35C013B5A425341DBB2A722BA1812780132442179188A5C023A51424A41D2B21340DBB221
:40208000002B07D0A723FB181B7801333A1D0121D1541BE0A723FB181B783A1DD35C013B5A425341DBB2A722BA1812780132442179188A5C033A51424A41D2B21340DBB2FF
:4020C000002B03D08723FB1802221A70A723FB18A722BA18127801321A70A723FA189723FB1812781B789A4200D239E79723FB181B78002B40D0A723FB189722BA18127897
:40210000013A1A7033E0C046B501002074010020A723FB181B783A1DD35C1D0000231E009823FB181A685B682800310004F038FE03000C00190022008823FB185C681B681D
:402140005B1854418822BA18136054609823FB185C681B68DB1864419822BA1813605460A723FB18A722BA181278013A1A70A723FB181B78002BCBD18823FB181A68D4231F
:402180009B059A420CD18C23FB181A68EF239B009A4205D18723FB180A221A7001F038F90123191C8823FB181A68A023DB049A4206D18C23FB181A68EF239B009A4201D002
:4021C0000023191CCAB20123191C8823FB181B68012B04D18C23FB181B68002B01D00023191CCBB21343DBB219000123181C8823FB181B68CA4A934204D18C23FB181B68C2
:40220000002B01D00023181CC3B20B430122101C8822BA181268C3498A4204D18C22BA181268002A01D00022101CC2B213430122101C8822BA181268BB498A4204D18C22F1
:40224000BA181268002A01D00022101CC2B213430122101C8822BA181268B4498A4204D18C22BA181268002A01D00022101CC2B2134305D08723FB180B221A7001F0C8F815
:402280000123191C8823FB181A68AA23DB059A4206D18C23FB181A68EF239B009A4201D00023191CCAB20123191C8823FB181B68022B04D18C23FB181B68002B01D00023B3
:4022C000191CCBB21343DBB219000123181C8823FB181B68964A934204D18C23FB181B68002B01D00023181CC3B20B430122101C8822BA1812688F498A4204D18C22BA1874
:402300001268002A01D00022101CC2B213430122101C8822BA18126887498A4204D18C22BA181268002A01D00022101CC2B213430122101C8822BA18126880498A4204D19E
:402340008C22BA181268002A01D00022101CC2B2134305D08723FB180C221A7001F058F80123191C8823FB181A68A5231B069A4206D18C23FB181A68EF239B009A4201D0F2
:402380000023191CCAB20123191C8823FB181B68032B04D18C23FB181B68002B01D00023191CCBB21343DBB219000123181C8823FB181B68624A934204D18C23FB181B6866
:4023C000002B01D00023181CC3B20B430122101C8822BA1812685B498A4204D18C22BA181268002A01D00022101CC2B213430122101C8822BA18126853498A4204D18C2200
:40240000BA181268002A01D00022101CC2B213430122101C8822BA1812684C498A4204D18C22BA181268002A01D00022101CC2B2134305D08723FB180D221A7000F0E8FF93
:402440000123191C8823FB181A68CA23DB059A4206D18C23FB181A68EF239B009A4201D00023191CCAB20123191C8823FB181B68042B04D18C23FB181B68002B01D00023CF
:40248000191CCBB21343DBB219000123181C8823FB181B682E4A934204D18C23FB181B68002B01D00023181CC3B20B430122101C8822BA18126827498A4204D18C22BA1882
:4024C0001268002A01D00022101CC2B213430122101C8822BA1812681F498A4204D18C22BA181268002A01D00022101CC2B213430122101C8822BA18126818498A4204D1AD
:402500008C22BA181268002A01D00022101CC2B2134325D08723FB180E221A7000F078FF01050000010A0000010600000129010002050000020A0000020600000229010031
:4025400003050000030A0000030600000329010004050000040A000004060000042901000123191C8823FB181A6885231B069A4206D18C23FB181A68EF239B009A4201D00E
:402580000023191CCAB20123191C8823FB181B68052B04D18C23FB181B68002B01D00023191CCBB21343DBB219000123181C8823FB181B68AC4A934204D18C23FB181B6818
:4025C000002B01D00023181CC3B20B430122101C8822BA181268A5498A4204D18C22BA181268002A01D00022101CC2B213430122101C8822BA1812689D498A4204D18C226A
:40260000BA181268002A01D00022101CC2B213430122101C8822BA18126896498A4204D18C22BA181268002A01D00022101CC2B2134305D08723FB180F221A7000F0E8FE46
:4026400001231A1C8823FB181B68062B04D18C23FB181B68002B01D000231A1CD2B20123181C8823FB181B6883498B4204D18C23FB181B68002B01D00023181CC3B2134331
:40268000DBB219000123181C8823FB181B687B4A934204D18C23FB181B68002B01D00023181CC3B20B430122101C8822BA18126873498A4204D18C22BA181268002A01D07A
:4026C0000022101CC2B213430122101C8822BA1812686C498A4204D18C22BA181268002A01D00022101CC2B2134305D08723FB1810221A7000F08CFE01231A1C8823FB183A
:402700001B68072B04D18C23FB181B68002B01D000231A1CD2B20123181C8823FB181B6859498B4204D18C23FB181B68002B01D00023181CC3B21343DBB219000123181CB3
:402740008823FB181B68514A934204D18C23FB181B68002B01D00023181CC3B20B430122101C8822BA18126849498A4204D18C22BA181268002A01D00022101CC2B21343F3
:402780000122101C8822BA18126842498A4204D18C22BA181268002A01D00022101CC2B2134305D08723FB1811221A7000F030FE01231A1C8823FB181B68352B04D18C23AF
:4027C000FB181B68002B01D000231A1CD2B20123181C8823FB181B682F498B4204D18C23FB181B68002B01D00023181CC3B21343DBB219000123181C8823FB181B68274AA4
:40280000934204D18C23FB181B68002B01D00023181CC3B20B430122101C8822BA1812681F498A4204D18C22BA181268002A01D00022101CC2B213430122101C8822BA186D
:40284000126818498A4204D18C22BA181268002A01D00022101CC2B2134325D08723FB1814221A7000F0D4FD05050000050A0000050600000529010006050000060A00002E
:40288000060600000629010007050000070A0000070600000729010035050000350A0000350600003529010001231A1C8823FB181B681E2B04D18C23FB181B68002B01D074
:4028C00000231A1CD2B20123181C8823FB181B68AD498B4204D18C23FB181B68002B01D00023181CC3B21343DBB219000123181C8823FB181B68A54A934204D18C23FB18CD
:402900001B68002B01D00023181CC3B20B430122101C8822BA1812689D498A4204D18C22BA181268002A01D00022101CC2B213430122101C8822BA18126896498A4204D160
:402940008C22BA181268002A01D00022101CC2B2134305D08723FB1815221A7000F058FD01231A1C8823FB181B681F2B04D18C23FB181B68002B01D000231A1CD2B20123B6
:40298000181C8823FB181B6883498B4204D18C23FB181B68002B01D00023181CC3B21343DBB219000123181C8823FB181B687B4A934204D18C23FB181B68002B01D00023BF
:4029C000181CC3B20B430122101C8822BA18126873498A4204D18C22BA181268002A01D00022101CC2B213430122101C8822BA1812686C498A4204D18C22BA181268002A72
:402A000001D00022101CC2B2134305D08723FB1816221A7000F0FCFC01231A1C8823FB181B68322B04D18C23FB181B68002B01D000231A1CD2B20123181C8823FB181B68ED
:402A400059498B4204D18C23FB181B68002B01D00023181CC3B21343DBB219000123181C8823FB181B68514A934204D18C23FB181B68002B01D00023181CC3B20B430122AD
:402A8000101C8822BA18126849498A4204D18C22BA181268002A01D00022101CC2B213430122101C8822BA18126842498A4204D18C22BA181268002A01D00022101CC2B28C
:402AC000134305D08723FB1817221A7000F0A0FC01231A1C8823FB181B68342B04D18C23FB181B68002B01D000231A1CD2B20123181C8823FB181B682F498B4204D18C2350
:402B0000FB181B68002B01D00023181CC3B21343DBB219000123181C8823FB181B68274A934204D18C23FB181B68002B01D00023181CC3B20B430122101C8822BA181268E7
:402B40001F498A4204D18C22BA181268002A01D00022101CC2B213430122101C8822BA18126818498A4204D18C22BA181268002A01D00022101CC2B2134325D08723FB1839
:402B800018221A7000F044FC1E0500001E0A00001E0600001E2901001F0500001F0A00001F0600001F29010032050000320A0000320600003229010034050000340A000031
:402BC000340600003429010001231A1C8823FB181B68362B04D18C23FB181B68002B01D000231A1CD2B20123181C8823FB181B68B9498B4204D18C23FB181B68002B01D0D0
:402C00000023181CC3B21343DBB219000123181C8823FB181B68B14A934204D18C23FB181B68002B01D00023181CC3B20B430122101C8822BA181268A9498A4204D18C22AD
:402C4000BA181268002A01D00022101CC2B213430122101C8822BA181268A2498A4204D18C22BA181268002A01D00022101CC2B2134305D08723FB1819221A7000F0C8FB0D
:402C80008823FB181B68984A93420AD18C23FB181B683B2B05D18723FB181A221A7000F0B7FB01231A1C8823FB181B685C2B04D18C23FB181B68002B01D000231A1CD2B286
:402CC0000123181C8823FB181B6888498B4204D18C23FB181B68002B01D00023181CC3B21343DBB219000123181C8823FB181B687F4A934204D18C23FB181B68002B01D072
:402D00000023181CC3B20B430122101C8822BA18126878498A4204D18C22BA181268002A01D00022101CC2B213430122101C8822BA18126870498A4204D18C22BA1812682C
:402D4000002A01D00022101CC2B213430122111C8822BA181268462A04D18C22BA181268002A01D00022111CCAB213430122101C8822BA18126861498A4204D18C22BA188F
:402D80001268002A01D00022101CC2B213430122101C8822BA18126859498A4204D18C22BA181268002A01D00022101CC2B213430122101C8822BA18126852498A4204D170
:402DC0008C22BA181268002A01D00022101CC2B213430122101C8822BA1812684A498A4204D18C22BA181268002A01D00022101CC2B2134304D08723FB181B221A7007E3FE
:402E000001231A1C8823FB181B687F2B04D18C23FB181B68002B01D000231A1CD2B20123181C8823FB181B6838498B4204D18C23FB181B68002B01D00023181CC3B213433B
:402E4000DBB219000123181C8823FB181B68304A934204D18C23FB181B68002B01D00023181CC3B20B430122101C8822BA18126828498A4204D18C22BA181268002A01D048
:402E80000022101CC2B213430122101C8822BA18126821498A4204D18C22BA181268002A01D00022101CC2B213430122101C8822BA18126819498A4204D18C22BA1812685B
:402EC0003B2A01D00022101CC2B2134328D08723FB181C221A709BE236050000360A00003606000036290100000240C15C0500005C0A00005C0600005C2901004605000076
:402F0000460A000046060000462901007F0500007F0A00007F0600007F2901001A7448C301231A1C8823FB181B68592B04D18C23FB181B68002B01D000231A1CD2B201237B
:402F4000181C8823FB181B68C2498B4204D18C23FB181B68002B01D00023181CC3B21343DBB219000123181C8823FB181B68BA4A934204D18C23FB181B68002B01D000237B
:402F8000181CC3B20B430122101C8822BA181268B2498A4204D18C22BA181268002A01D00022101CC2B213430122101C8822BA181268AB498A4204D18C22BA181268002A2E
:402FC00001D00022101CC2B213430122111C8822BA181268D42A04D18C22BA181268002A01D00022111CCAB213430122101C8822BA1812689B498A4204D18C22BA181268F5
:40300000002A01D00022101CC2B213430122101C8822BA18126894498A4204D18C22BA181268002A01D00022101CC2B213430122101C8822BA1812688C498A4204D18C2244
:40304000BA181268002A01D00022101CC2B213430122101C8822BA18126885498A4204D18C22BA181268002A01D00022101CC2B2134304D08723FB181F221A70C8E1012307
:403080001A1C8823FB181B68D52B04D18C23FB181B68002B01D000231A1CD2B20123181C8823FB181B6873498B4204D18C23FB181B68002B01D00023181CC3B21343DBB2BF
:4030C00019000123181C8823FB181B686A4A934204D18C23FB181B68002B01D00023181CC3B20B430122101C8822BA18126863498A4204D18C22BA181268002A01D00022BC
:40310000101CC2B213430122101C8822BA1812685B498A4204D18C22BA181268002A01D00022101CC2B2134304D08723FB1820221A706DE18823FB181B68524A934209D1CB
:403140008C23FB181B683B2B04D18723FB1829221A705DE18823FB181B684B4A934209D18C23FB181B683B2B04D18723FB182A221A704DE18823FB181B68444A934209D1BB
:403180008C23FB181B683B2B04D18723FB182B221A703DE18823FB181B683D4A934209D18C23FB181B683B2B04D18723FB182C221A702DE18823FB181B68364A934209D1D3
:4031C0008C23FB181B683B2B04D18723FB182D221A701DE18823FB181B682F4A934209D18C23FB181B683B2B04D18723FB182E221A700DE18823FB181B68284A934209D1EB
:403200008C23FB181B683B2B04D18723FB182F221A70FDE08823FB181B68214A934209D18C23FB181B683B2B04D18723FB1830221A70EDE08823FB181B681A4A934233D1DA
:403240008C23FB181B683B2B2ED18723FB1831221A70DDE059050000590A00005906000059290100D4050000D40A0000D4060000D4290100D5050000D50A0000D506000087
:40328000D5290100010040C1020040C1030040C1040040C1050040C1060040C1070040C1080040C1090040C18823FB181B685D4A934209D18C23FB181B683B2B04D1872318
:4032C000FB1832221A70A3E08823FB181B68564A934209D18C23FB181B683B2B04D18723FB1833221A7093E08823FB181B684F4A934209D18C23FB181B683B2B04D1872388
:40330000FB1834221A7083E08823FB181B68484A934209D18C23FB181B683B2B04D18723FB1835221A7073E08823FB181B68414A934209D18C23FB181B683B2B04D187239F
:40334000FB1836221A7063E08823FB181B683A4A934209D18C23FB181B683B2B04D18723FB1837221A7053E08823FB181B68334A934209D18C23FB181B683B2B04D18723B7
:40338000FB1838221A7043E08823FB181B682C4A934209D18C23FB181B683B2B04D18723FB1839221A7033E08823FB181B68254A934209D18C23FB181B683B2B04D18723CF
:4033C000FB183A221A7023E08823FB181B681E4A934209D18C23FB181B683B2B04D18723FB183B221A7013E08823FB181B68174A93420DD18C23FB181B683B2B08D18723DF
:40340000FB183C221A7003E08723FB1801221A700F4B00221A708723FB181B781800BD462BB0F0BD0A0040C10B0040C10C0040C10D0040C10E0040C10F0040C1100040C1E9
:40344000110040C1120040C1130040C1140040C1B501002080B500AF134B1B68402213400AD0124B1B78012B03D1104B00221A7002E00F4B01221A700B4B1B688022134026
:403480000AD00C4B1B78012B03D10A4B00221A7002E0094B01221A70022001F015FD02F093F9C046BD4680BD10030440B601002070010020B70100207101002080B500AF6E
:4034C00001F0B0FD0300012B08D1064B01221A70054B01221A70012001F0AEFDC046BD4680BDC046B60100207201002080B500AF01F024FE0300012B08D1064B01221A70BB
:40350000054B01221A70012001F022FEC046BD4680BDC046B70100207301002090B583B000AFFB1D00221A70FC1D03F0F1F803002370FB1D1B78012213401FD00EE01F4BC6
:403540001B780133DAB21D4B1A701C4B1B781C0003F0F8F803001A00194B1A5503F0D8F803001A0008231340E9D1144B1A78154B1A70124B00221A7003F072F9FB1D1B7818
:403580000422134016D00EE00C4B1B780133DAB20A4B1A70094B1B781C0003F0D3F803001A00074B1A5503F0B3F803001A0008231340E9D1C046BD4603B090BDB4010020C5
:4035C00074010020B501002080B500AF03F01CFA03001A000123134006D0054B01221A7003F03EF903F0F0F9C046BD4680BDC046DF010020B0B582B000AFDD4C3800DD4BEB
:403600001A78597809020A43997809040A43D97809060A43002515001A790023FF210A40FF218B4313432A000221FEF759FB3B002000190005231A0003F00AFCCD4ACC4BA6
:403640001000190005231A0003F002FCCA4B1B78072B00D976E39A00C84BD3181B689F46C34BDB78012B06D104210120FEF72EF9C04B0022DA70BE4B1B79012B02D1BD4B01
:4036800000221A71BA4B9B78012B02D1B94B00229A70B74B1B78012B2FD1B54B5B78012B28D1B74B180001F0EDF8B14C3800B14B1A78597809020A43997809040A43D978C5
:4036C00009060A43002515001A790023FF210A40FF218B4313432A000221FEF701FB3B002000190005231A0003F0B2FBA14B00221A7002E09F4B00221A7038009D4B1A787A
:40370000597809020A43997809040A43D97809060A43002414001A790023FF210A40FF218B43134322000121FEF7DAFA0AE3904B5B78002B06D18E4B1B78002B02D18D4BC0
:4037400001221A708A4B1B79002B02D1894B01221A71874B9B78002B02D1864B01229A70884B1B78012B06D1814BDB78002B02D1804B0122DA7038007E4B1A7859780902A5
:403780000A43997809040A43D97809060A43002414001A790023FF210A40FF218B43134322000121FEF79CFA714C3800714B1A78597809020A43997809040A43D978090602
:4037C0000A43002515001A790023FF210A40FF218B4313432A000221FEF782FA3B002000190005231A0003F033FB614B1B78012B20D15F4C38005F4B1A78597809020A43A5
:40380000997809040A43D97809060A43002515001A790023FF210A40FF218B4313432A000221FEF75DFA3B002000190005231A0003F00EFB534B1B78012B03D10221012012
:40384000FEF744F8504B180001F01CF87AE2484B5B78002B06D1464B1B78002B02D1454B01221A70424B1B79002B02D1414B01221A713F4B9B78002B02D13E4B01229A7092
:40388000404B1B78012B06D1394BDB78002B02D1384B0122DA703800364B1A78597809020A43997809040A43D97809060A43002414001A790023FF210A40FF218B431343FA
:4038C00022000121FEF70CFA294C3800294B1A78597809020A43997809040A43D97809060A43002515001A790023FF210A40FF218B4313432A000221FEF7F2F93B0020006F
:40390000190005231A0003F0A3FA194B1B78012B20D1174C3800174B1A78597809020A43997809040A43D97809060A43002515001A790023FF210A40FF218B4313432A00F0
:403940000221FEF7CDF93B002000190005231A0003F07EFA0B4B1B78012B03D102210120FDF7B4FF094B180000F08CFFEAE1C046D0010020C80100206C01002008710000DC
:40398000547000006E0100206070000078700000C84B5B78002B06D1C64B1B78002B02D1C54B01221A70C34B1B79002B02D1C24B01221A71BF4B9B78002B02D1BE4B012213
:4039C0009A70BE4B1B78012B06D1BA4BDB78002B02D1B94B0122DA703800B74B1A78597809020A43997809040A43D97809060A43002414001A790023FF210A40FF218B4304
:403A0000134322000121FEF76BF9AA4C3800AA4B1A78597809020A43997809040A43D97809060A43002515001A790023FF210A40FF218B4313432A000221FEF751F93B0038
:403A40002000190005231A0003F002FA994B1B78012B20D1974C3800974B1A78597809020A43997809040A43D97809060A43002515001A790023FF210A40FF218B431343DA
:403A80002A000221FEF72CF93B002000190005231A0003F0DDF9894B1B78012B03D102210120FDF713FF864B180000F0EBFE49E1804B1B79002B02D17F4B01221A717D4BE6
:403AC0009B78002B02D17C4B01229A707B4B1B78012B06D1774BDB78002B02D1764B0122DA703800744B1A78597809020A43997809040A43D97809060A43002414001A798F
:403B00000023FF210A40FF218B43134322000121FEF7E6F8694B1B78012B03D102210120FDF7D4FE674B180000F0ACFE0AE1614B5B78002B06D15F4B1B78002B02D15E4B98
:403B400001221A705B4B1B79002B02D15A4B01221A715A4B1B78012B06D1564BDB78002B02D1554B0122DA703800534B1A78597809020A43997809040A43D97809060A432A
:403B8000002414001A790023FF210A40FF218B43134322000121FEF7A3F8464C3800464B1A78597809020A43997809040A43D97809060A43002515001A790023FF210A400D
:403BC000FF218B4313432A000221FEF789F83B002000190005231A0003F03AF9354B1B78012B20D1334C3800334B1A78597809020A43997809040A43D97809060A43002585
:403C000015001A790023FF210A40FF218B4313432A000221FEF764F83B002000190005231A0003F015F9254B1B78012B03D102210120FDF74BFE244B180000F023FE81E039
:403C40001C4BDB78002B02D11B4B0122DA70194B1B79002B02D1184B01221A71154B9B78002B02D1144B01229A703800124B1A78597809020A43997809040A43D97809069A
:403C80000A43002414001A790023FF210A40FF218B43134322000121FEF722F8074B00221A7002210220FDF711FE084B180000F0E9FD47E0D0010020C80100206E010020B1
:403CC00090700000A8700000BC700000D07000001F4BDB78002B02D11E4B0122DA701C4B1B79002B02D11B4B01221A71184B9B78002B02D1174B01229A703800154B1A7875
:403D0000597809020A43997809040A43D97809060A43002414001A790023FF210A40FF218B43134322000121FDF7DAFF0A4B01221A7002210120FDF7C9FD084B180000F03A
:403D4000A1FDC046064B1B781800BD4602B0B0BDD0010020C80100206E010020EC7000006C01002080B582B000AF0200FB1D1A70714B1B78072B00D9D3E09A006F4BD31829
:403D80001B689F46FB1D1B78072B2ED89A006C4BD3181B689F466B4B180000F073FD25E0694B180000F06EFD20E0684B180000F069FD1BE0664B180000F064FD16E0654BDE
:403DC000180000F05FFD11E0634B180000F05AFD0CE05D4B180000F055FD642001F074F85C4B180000F04EFD00E0C0469EE0FB1D1B78022B0DD002DC012B05D01FE0052B71
:403E00000CD0072B0FD01AE04E4B180000F03AFD15E04D4B180000F035FD10E04D4B180000F030FD0BE0484B180000F02BFD642001F04AF8474B180000F024FDC04675E0C4
:403E4000FB1D1B78022B0DD002DC012B05D01FE0052B0CD0072B0FD01AE03A4B180000F011FD15E0384B180000F00CFD10E0394B180000F007FD0BE0334B180000F002FD84
:403E8000642001F021F8334B180000F0FBFCC0464CE0FB1D1B78082B00D004E02F4B180000F0F0FCC04641E0FB1D1B78033B042B3BD89A002A4BD3181B689F4606210220C8
:403EC000FDF704FD13E005210220FDF7FFFC0EE002210220FDF7FAFC09E004210220FDF7F5FC04E001210220FDF7F0FCC0461CE0FB1D1B78062B09D0072B0CD0052B00D0A4
:403F000014E002210120FDF7E1FC09E004210120FDF7DCFC04E001210120FDF7D7FCC04604E0C04602E0C04600E0C04600231800BD4602B080BDC0466C010020747100002C
:403F40009471000028710000307100003C71000048710000547100005C71000068710000B471000080B584B000AF0200FB1D1A700C23FB1800221A700C23FB1800225A7034
:403F80000C23FB1800229A70C64B1B78002B00D06FE0C54BC5490322002001F0A9FCFB1D1B780A2B0FD1C14B1A78BE4B1A70BF4B9A78BF4B1A70BB4B1B78002B54D1B94B1E
:403FC00001221A7050E0FB1D1B780B2B07D1B54B01221A70B54B9A78B54B1A7044E0FB1D1B780C2B07D1AF4B02221A70AF4B9A78AF4B1A7038E0FB1D1B780D2B07D1A94B05
:4040000003221A70A94B9A78A94B1A702CE0FB1D1B780E2B07D1A34B04221A70A34B9A78A34B1A7020E0FB1D1B780F2B07D19D4B05221A709D4B9A789D4B1A7014E0FB1DA1
:404040001B78102B06D1974B06221A70984B00221A7009E0FB1D1B78112B05D1914B07221A70934B01221A70904B5A78914B1A703CE0FB1D1B780B2B03D18A4B01221A7052
:4040800034E0FB1D1B780C2B03D1864B02221A702CE0FB1D1B780D2B03D1824B03221A7024E0FB1D1B780E2B03D17E4B04221A701CE0FB1D1B780F2B03D17A4B05221A7018
:4040C00014E0FB1D1B78102B06D1764B06221A70774B00221A7009E0FB1D1B78112B05D1704B07221A70724B01221A70FB1D1B781A2B1BD16B4B1A780C23FB181A706D4B08
:404100001A780C23FB185A70694B1A780C23FB189A70654B0C22B9180322002001F07EFD604B00221A70634B00221A70FB1D1B781F2B10D15B4B1B78002B0CD05D4B1B78ED
:404140000133DAB25B4B1A705A4B1B78072B02D9584B01221A70FB1D1B78202B10D1514B1B78002B0CD0534B1B78013BDAB2514B1A70504B1B78002B02D14E4B08221A7015
:40418000484B1B78012B34D1FB1D1B78142B04D1494B180000F076FB2BE0FB1D1B78152B04D1464B180000F06DFB22E0FB1D1B78162B04D1424B180000F064FB19E0FB1D48
:4041C0001B78172B04D13F4B180000F05BFB10E0FB1D1B78182B04D13B4B180000F052FB07E0FB1D1B78192B03D1384B180000F049FB2C4B1B78022B31D1FB1D1B78142B03
:4042000004D12D4B180000F03DFB28E0FB1D1B78153B5A425341DAB2FB1D1B78183B59424B41DBB21343DBB2002B04D0234B180000F028FB13E0FB1D1B78163B5A425341E6
:40424000DAB2FB1D1B78173B59424B41DBB21343DBB2002B03D01A4B180000F013FB114B1B78032B48D1FB1D1B78142B04D1124B180000F007FB3FE0FB1D1B78153B5A4293
:404280005341DAB2FB1D1B78183B59424B41DBB21343DBB2002B1BD0084B180000F0F2FA2AE0C0466C010020E0010020DC0100206E0100206D0100205471000028710000D6
:4042C00030710000487100003C7100005C710000FB1D1B78163B5A425341DAB2FB1D1B78173B59424B41DBB21343DBB2002B03D0674B180000F0C6FAFB1D1B7828229A4255
:404300009B415B42DAB2FB1D19783C20002388425B41DBB21340DBB2002B29D0FB1D1B78283BDAB25B4B1A705B4B1B78052B1FD15A4B180000F0A6FA564B1B780A21180072
:4043400002F0B8FB0300DBB23033180000F0EEF9504B1B780A21180002F032FC0B00DBB23033180000F0E2F94D4B180000F08AFA494B1B78062B56D1FB1D1B78142B05D1E4
:4043800004210220FDF7A2FA02F00CFBFB1D1B781B2B05D101210220FDF798FA02F002FBFB1D1B781C2B06D103210220FDF78EFA02F0F8FA37E0FB1D1B78153B5A425341FC
:4043C000DAB2FB1D1B78183B59424B41DBB21343DBB2002B06D006210220FDF777FA02F0E1FA20E0FB1D1B78163B5A425341DAB2FB1D1B78173B59424B41DBB21343DBB2D4
:40440000002B06D005210220FDF760FA02F0CAFA09E0FB1D1B78192B05D102210220FDF755FA02F0BFFA1C4B1B78072B28D1FB1D1B78142B05D104210220FDF747FA02F0FB
:40444000B1FAFB1D1B781B2B05D101210220FDF73DFA02F0A7FAFB1D1B781C2B06D103210220FDF733FA02F09DFA09E0FB1D1B78192B05D102210220FDF728FA02F092FA88
:40448000FB1D00221A7000231800BD4604B080BD30710000D40000206C010020C8710000D071000080B582B000AF786039603A687B680021180002F0D4FCC046BD4602B0AB
:4044C00080BDC04680B586B000AF7860396000233B6100237B612FE07B699B007A68D3181B68BB600F23FB18BA681A70BB68FF229343BB6018E03B695B003A68D3181B78FA
:404500001A00BB68D31819003B695B003A68D3185B780B703B6901333B610F23FB181A780F23FB18013A1A700F23FB181B78002BE1D17B6901337B617B69092BCCD9C0469F
:40454000BD4606B080BDC04680B500AFC046BD4680BDC04680B500AF02F04EFC03001B680C2B00D1FEE7FEE780B586B000AF224B7B61224B3B61204B7B6135E03B691B68A8
:40458000FB603B695B68BB603B699B683B6000237B600CE0FB681A68BB681A60BB680433BB60FB680433FB607B6804337B607A683B689A42EED13B69DB683B6000237B6071
:4045C00008E0BB6800221A60BB680433BB607B6804337B607A683B689A42F2D13B6910333B617B69013B7B617B69002BC6D102F009FCFCF72DFFFEE70100000014750000DC
:4046000080B582B000AF00237B600FE07B68032B04D8144B7A689200D35800E0124B134A796889008B507B6801337B607B682F2BECD9FCF7E7FD0E4B00221A600D4B1B6812
:40464000002B02D10B4B00221A608023DB058022D205126801210A431A60C046BD4602B080BDC046001100005545000000000020C8000020C000002080B500AF00F06CF822
:40468000C046BD4680BDC04680B500AF064B064A1268802109060A431A6000F019F800F01DF8C046BD4680BD0000064080B500AF064B1B78002B04D1FFF7DEFF034B01229A
:4046C0001A70FFF7E1FFC046BD4680BDB801002080B500AFC046BD4680BDC04680B500AF00F098F8C046BD4680BDC04680B582B000AF00237B60044B1B687B607B6818009F
:40470000BD4602B080BDC0464003064080B582B000AF054B1B680F2213407B607B681800BD4602B080BDC0460803064080B582B000AF7860C046064B1B680F221340082BED
:40474000F9D0044B7A681A60C046BD4602B080BD080206404002064080B500AF1A4B1B4A1A601B4B00221A601A4B1B4A1A601B4B1B4A1A601B4B07221A601B4B00221A6037
:404780001A4B01221A601A4B154A1A60194B00221A60194B00221A60184B00221A60184B00221A60174B00221A60174B00221A60164B00221A60154B1B689AB2144B1A809A
:4047C000C046BD4680BDC046000006400B000002400006404800064001000A0000030640070000800403064010030640440006400002064004020640880E0640C80E06406F
:40480000480F0640080F0640C80F0640880F0640BA01002080B500AF074B074A1268F0218A4390210A431A60044B054A12881A60C046BD4680BDC04610000140880F064026
:40484000BA01002080B582B000AF00237B60FFF75DFF031E03D0FFF749FF03007B60084B1A68D8239B00134005D000237B60044BD82292001A607B681800BD4602B080BD14
:40488000C00F064080B584B000AF78600023FB6009E07A68FB68D3181B781800FFF746FFFB680133FB607A68FB68D3181B78002BEFD1C046BD4604B080BDC04680B500AFF2
:4048C000034B40221A6000F0EDFAC046BD4680BDC000002090B5AFB000AF7860396000239422BA18136000239022BA1813600023A022BA1813600023B422BA18136000230A
:40490000B022BA1813600023AC22BA1813600023A822BA1813607B68FF2B00D985E13B68002B00D181E139680823FB1808338022180002F08DFA0223A422BA1813602FE01F
:404940000823FB18A422BA1812689200D3589C22BA1813609C23FB181B68002B19D0AC23FB181A689C23FB181B68D318AC22BA181360A823FB181A689C23FB181B681343FC
:40498000A822BA181360A423FB181B68B422BA181360A423FB181B680133A422BA181360A423FB181B68212BCAD9AC23FB181B68002B06D1A823FB181B68002B01D00123A0
:4049C00000E00023A022BA181360A023FB181B68002B11D00823FB18B422BA1812689200D358B022BA1813600823FB18B422BA18126892000021D1500823FB18904A1A604E
:404A00000823FB187F225A608E4B0822BA181A608D4B8E4A1A60C0468A4B1B681B0F1A07F0231B069A4204D1864B1B68FF2213400DE0844B1B681B0F1A07A0231B069A42C4
:404A400004D0804B1B68FF22134000E000239422BA1813609423FB181B68002B00D0E8E09B23FC1802F01EF80300237000F0F8F803009022BA1813609423FB181B68002BD0
:404A800032D10823FB18724A1A600823FB181A687B681B041A430823FB181A60694B0822BA181A60684B6B4A1A60C046654B1B681B0F1A07F0231B069A4204D1614B1B6804
:404AC000FF2213400DE05F4B1B681B0F1A07A0231B069A4204D05B4B1B68FF22134000E000239422BA1813609423FB181B68002B00D07DE0A023FB181B68002B00D177E05D
:404B00000823FB18083380220021180002F0A9F90823FB18B422BA1812689200B02179180968D1500823FB18454A1A600823FB187F225A60434B0822BA181A60424B434AA9
:404B40001A60C0463F4B1B681B0F1A07F0231B069A4204D13B4B1B68FF2213400DE0394B1B681B0F1A07A0231B069A4204D0354B1B68FF22134000E000239422BA181360B3
:404B80009423FB181B68002B32D10823FB18324A1A600823FB181A687B681B041A430823FB181A60274B0822BA181A60264B2B4A1A60C046234B1B681B0F1A07F0231B06B1
:404BC0009A4204D11F4B1B68FF2213400DE01D4B1B681B0F1A07A0231B069A4204D0194B1B68FF22134000E000239422BA1813609023FB181B68002B10D100F043F8030010
:404C00009022BA1813609023FB181B68002B05D09023FB181B689422BA1813609B23FB181B78180001F042FF03E004239422BA1813609423FB181B681800BD462FB090BDA9
:404C4000B6D70000080000400400004004000080B6D8000005000080B6D900000600008080B582B000AF00237B60044B1A68044B1A607B681800BD4602B080BD08010B4080
:404C8000BC01002080B582B000AF00237B60044A044B1B6813607B681800BD4602B080BD08010B40BC01002090B585B000AF78600C23FC1801F0F6FE030023707B68022B83
:404CC00000D8AFE07B68302B00D9ABE05C4B1B78DBB21A007B689A420AD35A4A0F23FB1812781A70584A0E23FB1812781A703FE0564B1B78DBB21A007B689A420AD3544A03
:404D00000F23FB1812781A70524A0E23FB1812781A702DE0504B1B78DBB21A007B689A420AD34E4A0F23FB1812781A704C4A0E23FB1812781A701BE04A4B1B78DBB21A00FF
:404D40007B689A420AD3484A0F23FB1812781A70464A0E23FB1812781A7009E0444A0F23FB1812781A70434A0E23FB1812781A707B68DA1E0B23FB183F498A5C1A700B23CD
:404D8000FB181B782F2B0DD97B682A2B0AD93B4B19221A60052001F07BFE0D23FB1819221A7007E0354B1B68DAB20D23FB183F210A401A700B23FA180D23FB1812781B7893
:404DC0009A4208D22D4B7A68033A2B498A5C1A60052001F05DFE2A4B7A6826498C4662441278D2B21A60274B0F22BA1812781A60254B0E22BA1812781A60052000F08AF8D5
:404E00000B23FA180D23FB1812781B789A420CD91A4B7A68033A18498A5C1A60052001F037FE02E0002000F031F80C23FB181B78180001F03BFEC046BD4605B090BDC0463E
:404E4000C0F1FF0FC1F1FF0FC2F1FF0FC3F1FF0FC4F1FF0FC5F1FF0FC6F1FF0FC7F1FF0FC8F1FF0FC9F1FF0FCAF1FF0FCBF1FF0FCCF1FF0FCDF1FF0FC07400002CFF0B40BB
:404E800028FF0B401CFF0B4020FF0B4080B582B000AF0200FB1D1A7001BEC046BD4602B080BDC04680B500AF054B054A12681204120C04490A431A60C046BD4680BDC046A8
:404EC0000CED00E00400FA0580B582B000AF786009E00D4B1B68180001F0DAFD7B680B4A944663447B607A6880231B029A42F0D8074B1B687A685343180001F0C9FDC04648
:404F0000BD4602B080BDC046E40000200080FFFFDC00002080B582B000AF0200BB1D1A80BB1D1B88044A12785343180001F0B0FDC046BD4602B080BDE000002080B500AFF6
:404F4000094B812292041A60084B8E2252001A60012000F059F8C82000F046F8002000F033F8C046BD4680BD000105402401054090B583B000AFFC1D01F094FD030023705A
:404F8000074B074A126801210A431A60FB1D1B78180001F08BFDC046BD4603B090BDC0460000054080B500AF064B1B78002B04D1FFF7C4FF034B01221A70FFF7D9FFC0460B
:404FC000BD4680BDC001002080B582B000AF7860044B7A681204120C1A60C046BD4602B080BDC0460801054080B582B000AF7860044B7A681204120C1A60C046BD4602B0EF
:4050000080BDC0461401054080B582B000AF7860034B7A681A60C046BD4602B080BDC0463801054080B500AF024B1B681800BD4680BDC0463C01054080B582B000AF78603D
:40504000034B7A681A60C046BD4602B080BDC0463001054080B500AF094B812292041A60084B8E2252001A60012000F059F8C82000F046F8002000F033F8C046BD4680BD5F
:40508000400105406401054090B583B000AFFC1D01F008FD03002370074B074A126802210A431A60FB1D1B78180001F0FFFCC046BD4603B090BDC0460000054080B500AF06
:4050C000064B1B78002B04D1FFF7C4FF034B01221A70FFF7D9FFC046BD4680BDC101002080B582B000AF7860044B7A681204120C1A60C046BD4602B080BDC04648010540C9
:4051000080B582B000AF7860044B7A681204120C1A60C046BD4602B080BDC0465401054080B582B000AF7860034B7A681A60C046BD4602B080BDC0467801054080B500AFD2
:40514000024B1B681800BD4680BDC0467C01054080B582B000AF7860034B7A681A60C046BD4602B080BDC0467001054080B582B000AF786000F050F87B68180000F00AF8E0
:40518000032000F015F800F03BF8C046BD4602B080BDC04680B582B000AF7860034B80217A685A50C046BD4602B080BD0000002090B585B000AF0200FB1D1A700623FB60DC
:4051C0000B23FC1801F06EFC030023700B4B0B4A1268C0218A431100FA1D1078FA68904002000A431A600B23FB181B78180001F05DFCC046BD4605B090BDC04610E400E0E3
:4052000080B500AF034B802252021A60C046BD4680BDC04600E100E080B500AF034B802252021A60C046BD4680BDC04680E100E080B582B000AF786000F050F87B6818006F
:4052400000F00AF8032000F015F800F03BF8C046BD4602B080BDC04680B582B000AF7860034B84217A685A50C046BD4602B080BD0000002090B585B000AF0200FB1D1A70A9
:405280000E23FB600B23FC1801F00CFC030023700A4B0A4A12680A491140FA1D1078FA68904002000A431A600B23FB181B78180001F0FCFBC046BD4605B090BD10E400E07D
:4052C000FF3FFFFF80B500AF034B802292021A60C046BD4680BDC04600E100E080B500AF034B802292021A60C046BD4680BDC04680E100E080B500AF044B1B68DBB20122AE
:405300001340DBB21800BD4680BDC0460400044080B500AF044B1B68202213405B09DBB21800BD4680BDC0460400044080B500AF044B1B6808221340DB08DBB21800BD4647
:4053400080BDC0460400044080B500AF044B1B68042213409B08DBB21800BD4680BDC0460400044080B500AF044B1B68022213405B08DBB21800BD4680BDC04604000440DA
:4053800080B584B000AF0200FB1D1A700F4B1B68DAB20F23FB1810218A431A70FB1D1B781B01DBB210221340D9B20F23FB180F22BA1812780A431A70044B0F22BA18127812
:4053C0001A60C046BD4604B080BDC0460000044080B584B000AF0200FB1D1A700F4B1B68DAB20F23FB1802218A431A70FB1D1B78DB18DBB202221340D9B20F23FB180F2268
:40540000BA1812780A431A70044B0F22BA1812781A60C046BD4604B080BDC0460001044080B584B000AF0200FB1D1A700F4B1B68DAB20F23FB1804218A431A70FB1D1B780D
:405440009B00DBB204221340D9B20F23FB180F22BA1812780A431A70044B0F22BA1812781A60C046BD4604B080BDC0460001044080B584B000AF0200FB1D1A700E4B1B6824
:40548000DAB20F23FB1801218A431A70FB1D1B7801221340D9B20F23FB180F22BA1812780A431A70044B0F22BA1812781A60C046BD4604B080BDC0460001044080B584B049
:4054C00000AF0200FB1D1A700F4B1B68DAB20F23FB1840218A431A70FB1D1B789B01DBB240221340D9B20F23FB180F22BA1812780A431A70044B0F22BA1812781A60C046DA
:40550000BD4604B080BDC0460000044080B584B000AF0200FB1D1A700E4B1B68DAB20F23FB1801218A431A70FB1D1B7801221340D9B20F23FB180F22BA1812780A431A70F6
:40554000044B0F22BA1812781A60C046BD4604B080BDC0460002044080B500AF044B1B68DBB201221340DBB21800BD4680BDC0460002044080B584B000AF0200FB1D1A70E9
:405580000F4B1B68DAB20F23FB1804218A431A70FB1D1B789B00DBB204221340D9B20F23FB180F22BA1812780A431A70044B0F22BA1812781A60C046BD4604B080BDC046EB
:4055C0000002044080B500AF044B1B68042213409B08DBB21800BD4680BDC0460002044080B584B000AF0200FB1D1A700F4B1B68DAB20F23FB1802218A431A70FB1D1B78D3
:40560000DB18DBB202221340D9B20F23FB180F22BA1812780A431A70044B0F22BA1812781A60C046BD4604B080BDC0460002044080B500AF044B1B68022213405B08DBB286
:405640001800BD4680BDC0460002044080B584B000AF0200FB1D1A700F4B1B68DAB20F23FB1808218A431A70FB1D1B78DB00DBB208221340D9B20F23FB180F22BA181278AF
:405680000A431A70044B0F22BA1812781A60C046BD4604B080BDC0460002044080B500AF044B1B6808221340DB08DBB21800BD4680BDC0460002044090B589B000AF78602B
:4056C00000220C23FB185A7240220C23FB181A6000220C23FB181A7201220C23FB185A600C23FB187A68DA601F23FC18074A0C23FB181100180000F07FF8030023701F239E
:40570000FB181B781800BD4609B090BDE001002080B582B000AF786000F04CF87B68180000F00AF8032000F015F800F039F8C046BD4602B080BDC04680B582B000AF786065
:40574000034B7A68DA64C046BD4602B080BDC0460000002090B585B000AF0200FB1D1A701E23FB600B23FC1801F09CF9030023700A4B0A4A126892009108FA1D1078FA6887
:40578000904002000A431A600B23FB181B78180001F08CF9C046BD4605B090BD00E400E080B500AF024B08221A60C046BD4680BD00E100E080B500AF024B08221A60C04668
:4057C000BD4680BD80E100E080B582B000AF094B1B68DAB2FB1D3F218A431A70054BFA1D12781A60FB1D1B789B09DBB21800BD4602B080BD1003044090B585B000AF786037
:4058000039600F23FB1801221A703B68002B67D07B68002B64D07B68DB68002B60D07B685B680A2B5CD87B681B68002B58D00F23FC187B68180000F08DFC030023700F23CB
:40584000FB181B78002B4BD17B681A683B68DA607B685A683B681A617B681A7A3B681A757B685A7A3B685A757B68DA683B689A617B681B689A097B681B683F210B4001D0B6
:40588000012300E00023D2183B685A603B685A687B685B685343DA017B68DB68D2183B681A603B6808333A681100180000F050FB3B689B681B68002B12D13B681B7D002B50
:4058C0000ED00F23FC183B68180000F089FD030023703B6808333A681100180000F038FB0F23FB181B781800BD4605B090BDC046B0B59AB002AFF860B9607A603B605F232E
:40590000FB1801221A700023FB640023BB64BB687B647B68002B00D178E1FA687B68D2183B68DB689A4200D970E1BB68002B00D16CE1FB683B647B68FB633B689B681B68B6
:405940007B630023BB633A6CFB6BD318013B9A093B6C9B09D31A01333B633B689A683B689B69D21A3B685B68DB011900100001F0A1F803001A003B685B685343DA013B6864
:405980009B69D318FB620023BB6518E0BB6D9A013B6C9A4208D8BB6D01339B015A1E3B6C9A4201D3012300E00023002B04D0BB6DBB64BB6CFB6407E0BB6D0133BB653B687A
:4059C0005A68BB6D9A42E1D83B689A68FB6AD31ADB09BB623B681B69012B12D93A6BBB6CD318013B7B62BA6CBB6A9A4207D87A6ABB6A9A4201D9012302E0002300E0012330
:405A0000BB630023BB6568E0FB6CDA01FB6AD3183B653B6C3F22134040333B62BB6D5A1C3B6B9A4206D23B6C3F2213404022D31A7B6501E0FB6B7B65BB6B002B17D0FA6CD9
:405A4000BB6A9A4213D93B685B68DB013A6DD31A3B653B689A693B6D9A4208D93B681A683B685968FB6CCB1ADB01D31A3B653B681B7D002B12D05F23FC187D6D3A6A796C29
:405A8000386D3B6800932B0000F0BEFB030023705F23FB181B78002B0DD022E0786C3A6D3B6AD31819007B6D1A0001F0D1F95F23FB1800221A703A6C7B6DD3183B64FA6BC0
:405AC0007B6DD31AFB637A6C7B6DD3187B64FB6C0133FB64BB6D0133BB65BA6D3B6B9A4292D35F23FB181B78002B00D08EE07B6B002B00D18AE03B685B687A6B934200D981
:405B000013003B633B6B013B3B637A6B3B6BD31ABB6577E03A68BB6D1100180000F04CFA03003B653B6D002B69D03B6D04331B68FB613B6D08331A68FB69D318BB61FA697C
:405B4000FB689A4208D9FA687B68D318FA699A429B415B42DBB205E0FA68BB699A429B415B42DBB2002B4AD0FA69FB689A4203D8FA68FB69D31A00E000237B61FA69FB6829
:405B80009A4203D9FA69FB68D31A00E000233B61FA69FB68934200D213003B647B690C337B61FA687B68D318BA69934200D913003A6C9B1A7B65BA683B69D3187B643B683B
:405BC0001B7D002B12D05F23FC187D6D7A69796C386D3B6800932B0000F016FB030023705F23FB181B78002B09D00FE0786C3A6D7B69D31819007B6D1A0001F029F9BB6D50
:405C00000133BB65BA6D7B6B9A4283D95F23FB181B781800BD4618B0B0BDC046B0B5B6B002AFF860B9607A603B60CF23FB1801221A7000233B620023FB613B689B68BB6138
:405C4000BB68BC22BA1813607B68002B00D177E1FA687B68D2183B68DB689A4200D96FE1BB68002B00D16BE17B68013B3021180000F020FF03000133B422BA181360002316
:405C80003B610023C422BA1813604EE10023B822BA181360BB691B68B022BA1813603B681422BA1818217918B0203818006800F0A1F92423FB1880220021180001F0D1F855
:405CC000B023FB181B680133B022BA1813602423FB18B022BA1812681A602423FB18FA685A60BC23FB181B68AC22BA181360B423FB181B685A1EC423FB181B689A4204D1ED
:405D00002423FB187A689A6010E02423FB1830229A607B68303B7B60FB683033FB60BC23FB181B683033BC22BA1813602423FB189A68AC23FB1819682423FB180C331800E2
:405D400001F086F87B69002B09D07B69403319002423FB1840334022180001F079F83B685A68B023FB181B689A4207D23B685B68B022BA181268D31A013300E00123C8229D
:405D8000BA1813608AE0C823FB181A68B023FB181B689A4205D12423FB18C022BA1813600BE03A68C823FB181B681100180000F003F90300C022BA181360BA693B689B6901
:405DC000D31ADA093B685B681900100000F0F8FE0B00A822BA181360C023FB181B68002B1DD0C023FB181B6804331A68C023FB181B6808331B68A82179180D6810217C18B6
:405E00001C21791820203818019300922B00220000F06AFA0300B822BA18136006E0B823FB181B680133B822BA181360B823FB181B68002B1BD12423FA183B6AD318A4223A
:405E4000BA1813603A69C023FB181B68D3180C33C022BA181360A423FB181868C023FB181968FA693B6AD31A1A0000F0F1FF3B681B7D002B0BD02423FB1840334021180029
:405E800000F010F903001A002423FB18DA63C823FB181B680133C822BA181360C823FB181A68B023FB181B689A4200D86BE7BB69CF22BC183A6824217918180000F080F980
:405EC00003002370BB69C022BA1813603B681B7D002B1BD0CF23FB181B78002B16D1BA693B689B69D21A3B681B68D318C022BA181360CF23FC183A682423F918C023FB18E2
:405F00001B68180000F05CF903002370CF23FB181B78002B13D1BA693B689A60C423FB181B680133C422BA181360C423FB181A68B423FB181B689A4200D2A7E600E0C0469E
:405F4000CF23FB181B781800BD4634B0B0BDC04680B586B000AF786039600023BB6000237B613B689B69FB607B68FA681A6000233B6114E0FB681B68BB60BB68002B08D0B4
:405F8000BA687B699A4204D9BB687B617B68FA681A60FB688033FB603B6901333B613B685A683B681B695A433B699A42E2D8C046BD4606B080BDC04680B584B000AF78602A
:405FC00039603B689B69FB600AE0FB688033FB603B681A68FB689A4202D80023FB6004E0FB681A687B689A42EFD1FB681800BD4604B080BD80B584B000AFF860B9607A60D5
:406000003B60FB68002B05D0BB681B6880331A00BB681A60BB681A683B681B689A4203D33B689A69BB681A607B6800221A603B685A68FB689A422FD83B681B69012B27D915
:40604000BB681A683B685B68DB01D21A3B689B699A4214D23B689A693B6859683B681B690F48844663444B43DB01D218BB6819683B689B69CB1AD2187B681A600CE0BB6811
:406080001A683B685B68DB01D21A7B681A6003E0BB681A687B681A60C046BD4604B080BDFFFFFF0180B584B000AF786039600F23FB18FF221A700C23FB1800221A803BE064
:4060C0000C23FB181B887A68D31819780F23FB180F22BA1812784A401A700E23FB1800221A701DE00F23FB181B785BB2002B08DA0F23FB181B78DB18DBB231225340DBB2CD
:4061000004E00F23FB181B78DB18DBB20F22BA1813700E23FB181A780E23FB1801321A700E23FB181B78072BDCD90C23FB181A880C23FB1801321A800C23FB181A883B688E
:406140009A42BDD10F23FB181B781800BD4604B080BDC04680B586B000AF78601723FB1803221A707B68DB683B617B681B689A097B681B683F210B4001D0012300E0002309
:40618000D2187B685B6853437A68127A01325343DA013B69D318FB603B69002B08D0FA6880231B029A4203D81723FB1800221A701723FB181B781800BD4606B080BDC04650
:4061C00080B588B000AFF860B9607A601F23FB1804221A70FB68DB09BB61BA68BB6911001800FEF777FB03007B617B69002B03D11F23FB1800221A701F23FB181B78180037
:40620000BD4608B080BDC04690B5A7B000AFF860B9607A603B60A823FB181B689B69FA68D21AA823FB181B681B68D3189022BA181360FB683C331C68FB6840334021180011
:40624000FFF730FF03009C420DD1B868FA687B68D31819003B681A0000F0FAFD9723FB1800221A7039E09023FB181B683C331C689023FB181B68403340211800FFF712FF23
:4062800003009C4225D19023FB1819681023FB188022180000F0DCFD9723FC18A823FB181A681023F918FB681800FFF789FF030023709723FB181B78002B0ED1B8687B6889
:4062C0009B001022BA18D3183A68190000F0C0FD03E09723FB1802221A709723FB181B781800BD4627B090BD80B586B000AFF860B9607A603B6000237B617B6800221A6031
:406300003B689A013B6A9A4208D83B6801339B015A1E3B6A9A4201D3012300E00023002B26D03B6A3F22134040331A00FB681A603A6A7B6AD2183B689B019A420AD33A6A64
:406340007B6AD2183B6801339B01013B9A4201D8012300E00023002B06D0FB681A687B6AD218BB681A6035E0BB6880221A6031E03A6A7B6AD2183B689B019A420AD33A6AFD
:406380007B6AD2183B6801339B01013B9A4201D8012300E00023002B19D0FB6840221A60FB681A687B6AD2183B6A3F211940FB681B68CB1AD218BB681A60FB681A68BB68C4
:4063C0001B68D21A7B6AD2187B681A6002E07B6901337B617B691800BD4606B080BDC04690B5A9B000AF78607B689B68BB60BB681B689822BA1813609723FB1801221A70EF
:4064000000239C22BA18136053E0BB6819000C23FB188022180000F01BFD9823FB181B6801339822BA1813600C23FB189822BA1812681A600C23FB18403340211800FFF759
:4064400031FE03001A000C23FB18DA63BB689722BC187A680C2179181800FFF7B1FE03002370BA687B689B69D21A7B681B68D3189022BA1813609723FC187A680C23F91881
:406480009023FB181B681800FFF79AFE030023707B688C22BA1808217918982038180068FFF7A8FD9C23FB181B6801339C22BA1813607B685A687B681B695A439C23FB1828
:4064C0001B689A42A1D89723FB181B781800BD4629B090BD80B500AF00F04CF8C046BD4680BDC04680B500AF064B064A1268802109060A431A6000F019F800F01DF8C0463D
:40650000BD4680BD0000074080B500AF064B1B78002B04D1FFF7DEFF034B01221A70FFF7E1FFC046BD4680BDC201002080B500AFC046BD4680BDC04680B500AF00F06CF8D7
:40654000C046BD4680BDC04680B582B000AF7860C046064B1B680F221340082BF9D0044B7A681A60C046BD4602B080BD080207404002074080B500AF174B184A1A60184B85
:40658000184A1A60184B194A1A60194B07221A60184B164A1A60184B00221A60174B00221A60174B00221A60164B00221A60164B00221A60154B00221A60154B00221A608E
:4065C000134B1B689AB2134B1A80002000F032F8C046BD4680BDC046000007400F00000120000740010000800003074007010080040307400002074004020740880E07401E
:40660000C80E0740480F0740080F0740C80F0740880F0740C401002080B500AF034B044A12881A60C046BD4680BDC046880F0740C401002080B584B000AF78600A4B1B68F5
:40664000FB60FB68094A1340FB607B689A06C0231B051340FA681343FB60034BFA681A60C046BD4604B080BD20000740FFFFFFF390B583B000AF4F2000F054F84F2000F0C3
:406680006BF8FC1D00F00EFA030023700B4A0B4B1B78DBB210210B43DBB21370FB1D1B78180000F003FA00F067F800F06BF8052000F01EF8C046BD4603B090BD90000F4011
:4066C00080B500AFC046BD4680BDC04680B500AF064B1B78002B04D1FFF7CAFF034B01221A70FFF7EDFFC046BD4680BDC601002080B582B000AF0200FB1D1A70034AFB1DBA
:406700001B781370C046BD4602B080BD80000F4080B500AF024B1B78DBB21800BD4680BD60000F4080B582B000AF0200FB1D1A70034AFB1D1B781370C046BD4602B080BDF7
:4067400020000F4080B500AF024B1B78DBB21800BD4680BD40000F4080B582B000AF0200FB1D1A70034AFB1D1B781370C046BD4602B080BD00000F4080B500AFC046BD4609
:4067800080BDC04680B500AF01E0FFF7DBFFFFF7BFFF03001A0008231340F6D1C046BD4680BDC04680B582B000AF786000F04EF87B68180000F00AF8032000F015F800F07E
:4067C0003BF8C046BD4602B080BDC04680B582B000AF7860034B7A681A64C046BD4602B080BDC0460000002090B585B000AF0200FB1D1A700623FB600B23FC1800F052F9E0
:40680000030023700B4B0B4A1268C0218A431100FA1D1078FA68904002000A431A600B23FB181B78180000F041F9C046BD4605B090BDC04600E400E080B500AF024B012205
:406840001A60C046BD4680BD00E100E080B500AF024B01221A60C046BD4680BD80E100E080B500AF024B01221A60C046BD4680BD80E200E080B582B000AF786000F04EF8C8
:406880007B68180000F00AF8032000F015F800F03BF8C046BD4602B080BDC04680B582B000AF7860034B7A689A64C046BD4602B080BDC0460000002090B585B000AF020045
:4068C000FB1D1A701623FB600B23FC1800F0EAF8030023700A4B0A4A12680A491140FA1D1078FA68904002000A431A600B23FB181B78180000F0DAF8C046BD4605B090BD9E
:4069000000E400E0FFFF3FFF80B500AF024B04221A60C046BD4680BD00E100E080B500AF024B04221A60C046BD4680BD80E100E090B583B000AF9023FF33180000F06EF8AD
:406940009023FF33180000F083F8FC1D00F0AAF8030023700A4A0A4B1B78DBB210210B43DBB21370FB1D1B78180000F09FF800F07FF8012000F038F8C046BD4603B090BD1B
:4069800093000F4080B500AF0549054B1B78DBB2802252421343DBB20B70C046BD4680BD72000F4080B500AF064B1B78002B04D1FFF7BEFF034B01221A70FFF7E3FFC04664
:4069C000BD4680BDC701002080B500AF054A054B1B78DBB27F210B40DBB21370C046BD4680BDC04672000F4080B582B000AF0200FB1D1A70034AFB1D1B781370C046BD4686
:406A000002B080BD83000F4080B500AF024B1B78DBB21800BD4680BD63000F4080B582B000AF0200BB1D1A80034ABB1D1B881380C046BD4602B080BD44100F4080B500AFD6
:406A4000024B1B889BB21800BD4680BD84100F4080B582B000AF0200BB1D1A80034ABB1D1B881380C046BD4602B080BD04100F4080B500AF01E0FFF7E1FFFFF7C5FF030006
:406A80001A0008231340F6D1C046BD4680BDC0460230800804D0C0460138FDD1C046C046C0467047EFF3108072B6704780F310887047C046002243088B4274D303098B4254
:406AC0005FD3030A8B4244D3030B8B4228D3030C8B420DD3FF22090212BA030C8B4202D31212090265D0030B8B4219D300E0090AC30B8B4201D3CB03C01A5241830B8B4215
:406B000001D38B03C01A5241430B8B4201D34B03C01A5241030B8B4201D30B03C01A5241C30A8B4201D3CB02C01A5241830A8B4201D38B02C01A5241430A8B4201D34B02A7
:406B4000C01A5241030A8B4201D30B02C01A5241CDD2C3098B4201D3CB01C01A524183098B4201D38B01C01A524143098B4201D34B01C01A524103098B4201D30B01C01ADC
:406B80005241C3088B4201D3CB00C01A524183088B4201D38B00C01A524143088B4201D34B00C01A5241411A00D20146524110467047FFE701B5002000F0F0F802BDC04669
:406BC0000029F7D076E7704703460B437FD4002243088B4274D303098B425FD3030A8B4244D3030B8B4228D3030C8B420DD3FF22090212BA030C8B4202D31212090265D08B
:406C0000030B8B4219D300E0090AC30B8B4201D3CB03C01A5241830B8B4201D38B03C01A5241430B8B4201D34B03C01A5241030B8B4201D30B03C01A5241C30A8B4201D384
:406C4000CB02C01A5241830A8B4201D38B02C01A5241430A8B4201D34B02C01A5241030A8B4201D30B02C01A5241CDD2C3098B4201D3CB01C01A524183098B4201D38B01E4
:406C8000C01A524143098B4201D34B01C01A524103098B4201D30B01C01A5241C3088B4201D3CB00C01A524183088B4201D38B00C01A524143088B4201D34B00C01A52412F
:406CC000411A00D201465241104670475DE0CA0F00D04942031000D34042534000229C4603098B422DD3030A8B4212D3FC22890112BA030A8B420CD3890192118B4208D376
:406D0000890192118B4204D389013AD0921100E08909C3098B4201D3CB01C01A524183098B4201D38B01C01A524143098B4201D34B01C01A524103098B4201D30B01C01AD4
:406D40005241C3088B4201D3CB00C01A524183088B4201D38B00C01A5241D9D243088B4201D34B00C01A5241411A00D20146634652415B10104601D34042002B00D5494217
:406D8000704763465B1000D3404201B5002000F005F802BD0029F8D016E770477047C046F0B54F464646C0B41604360C9946330005042C0C070C150C63437E436F436543F1
:406DC0001C0CAD1964199C46A64203D980235B02984647446346250CEF191D044B464A4343432D0C240464199918C91920000CBC90469946F0BDC046014B18687047C04628
:406E00004C0100200E4B70B500251E000D4CE41AA410A54204D0AB00F35898470135F8E700F066FB084B00251E00084CE41AA410A54204D0AB00F35898470135F8E770BDB5
:406E4000FC740000FC740000FC74000004750000002310B59A4203D0CC5CC4540133F9E710BD03008218934202D019700133FAE770470000000000000D0A00000D0A6375F2
:406E80007272656E74207374617465203D2000002053595354454D205354415445203D20000000000D0A4254205354415445203D200000000D0A4254203D200020444953D1
:406EC00050203D20000000002053445350203D200000000020525049203D2000205250495F5354415445203D20000000200D0A000D0A426C7565546F6F746820506169726E
:406F0000696E672028636F6E6E65637420746F2042542D42323029000D0A426C7565546F6F7468207265636F6E6E656374696E67000000000D0A426C7565546F6F74682095
:406F4000636C656172696E67000000000D0A426C7565546F6F7468206D757465000000000D0A426C7565546F6F74682050616972696E6720286C6F6F6B20666F7220425493
:406F80002D423230290000000D0A426C7565546F6F74682050415553450000000D0A426C7565546F6F7468205052455649555320534F4E47000000000D0A426C7565546FD8
:406FC0006F7468204E45585420534F4E470000000D0A42542053424320636F64656300000D0A42542041414320636F64656300000D0A4254206170745820636F6465630095
:407000000D0A4254206170745820484420636F64656300000D0A42542061707458204C4C20636F64656300000D0A425420636F6E6E656374656400000D0A42542073656156
:40704000726368696E6700000D0A425420736C65657000002D53485554444F574E2B00000D0A4C45443A20506C61796572204C4544204F4E000000000D0A4C45443A2069C7
:40708000526164696F204C4544204F4E000000000D0A4C45443A2044414220526164696F204C4544204F4E000D0A4C45443A20417578494E204C4544204F4E000D0A4C45FC
:4070C000443A205244532F464D204F4E000000000D0A4C45443A20426C7565546F6F7468205278204C4544204F4E00000D0A4C45443A20426C7565546F6F7468205478202A
:407100004C4544204F4E0000603600002E3700004E38000090390000B03A00002E3B0000403C0000D03C00002D55502B0D0A00002D444F574E2B0D0A000000002D4E4558C5
:40714000542B0D0A000000002D4241434B2B0D0A000000002D474F2B0D0A00002D53544F502B0D0A000000002D464D5F30312B0D0A000000263F0000843D0000EE3D00002C
:40718000403E0000263F0000923E0000A83E0000F03E0000EA3D0000963D0000A03D0000AA3D0000B43D0000BE3D0000C83D0000D23D0000BC3E0000C63E0000D03E00003E
:4071C000DA3E0000E43E00002D464D5F000000002B0D0A0000300F40000400400F40000402000F404E300F4035310F4060320F404A330F400B400F400E410F4001420F4094
:4072000011430F4002600F40800F830D0118041C0504060207080C1F1004124113021410162117111D081E401F0420082221230524402A3D301C31043203331834403502A8
