:400000000010002011000000B5030000B503000008B500F081FA00F0CFF90000F7B572B680220021D200554800F0EDFF802200215348D20000F0E7FF0023191C514C1859E1
:400040001034C2B20192071CFF2297434A00A4180022019ED5B2AE4209D05500665D6519B446BC446D78664635700132F1E7C0B204330918102BE1D1434BC02292041A60F8
:40008000424B99221A60424A00231360414A80211160414AC9031160404A40211160404AC021490311603F4A312113603E4B02221A603E4B802019603D4B3E491A60992317
:4000C0001B040B603C49000608603C493C200B603B4B8021890519603A493B4B19603B4B19780A431A703A4A117881431420014311701A7816210A431A70364A8023116893
:40010000DB020B431360344B141C1878334BC0B21978334BC9B21A78172A05D9314A58789978033B9342F6D12F4B192218602F4B052019602E4B1A6000F05EFD2D4B052061
:400140001A782D4BD2B21A6000F09EFE22682B4B134023602A4A2B4B1A602B4B10221A602A4B20221A602A4B802212061A60294A294B1A60294A2A4B1A60F7BD00300F40BF
:4001800000400F402410000004000140100001400C000140000004400800044000010440080104400803044000040440080404401804044000500F4004500F4010500F403F
:4001C00018500F40100001002001054000700F4001700F4000010B40CCF1FF0FCDF1FF0FC9F1FF0FBDF1FF0F1CFF0B4020FF0B402CFF0B40E5F1FF0F28FF0B40FFFFFBFF57
:400200000600008004010B40080202402002024008010B401000008000000240AF0400804000024010B5064C2378002B07D1054B002B02D0044800E000BF0123237010BDEC
:40024000F0000020000000002010000008B5084B002B03D00748084900E000BF07480368002B03D0064B002B00D0984708BDC0460000000020100000F4000020D00000200F
:400280000000000010B562B600F0ACFC00280ED16524012000F0E2FD00F0A4FC002806D1013CE4B2002CF4D1034B40221A6000F08BFC00F0DBFAFEE7C000002008B500F01E
:4002C00015FB00F04DFB00F0B5FB08BD70B5054B0D1C161C0024C9B21C8000F09FFB3580201C70BD0C010020F0B50A275F4387B003900591151C00262D4CBE4219DA00F0E6
:400300001DFB80B220802388002B0CD00220268800F0A4FD00F012FB80B220802388B6B2B342F3D807E00120013600F097FDB6B2E2E7052600E0002600272F802388002B4D
:4003400033D023889BB2019301992B885A18059992B22A808A4221D2019ABB189BB2029302998F4209D07B1C9BB20493039BDF1900F0CAFA3870049FF2E772B62388019AF8
:400380009B1A9BB2238062B6039A5318013B1B78172B08D0052000F061FD04E02B8000F0DFFA052601E0029FC8E7301C07B0F0BD0C010020FEE7000070B51048104B013895
:4003C000421C15D01E685C689D680022A118AA4203D0B158A1500432F8E7DA680D1C4C1B944202D0002410C1F9E710330138E7E700F0DAFDFFF746FFFEE7C046010000003B
:400400007410000008B500239A00032B02D80D49895800E00C490D4801338150302BF3D1FFF7FCFD0A4B00221A600A4B1A68002A00D11A608023DB051A6801210A431A60B7
:4004400008BDC04600000000B503000000000020C8000020C0000020004770B5051C0E1C141C002802D0002000F0EAFC0020002C05D0013CAA19125D8318D8B2F7E770BD7A
:40048000013808B509282AD8C901494200F078FD0507090B0D0F1614181B154B08E0154B12E0154B0DE0154B0EE0154B00E0154BC9180878C0B21AE0134B02E0134B00E0A0
:4004C000134BC9180FE0134BC9180B7848788A780002120410431843CB781B0606E0002000F0AEFC00210B7848780002184308BDC07F0000C17F0000C57F0000C97F0000EF
:40050000D07F0000D17F0000D67F0000D27F0000D47F0000D87F00000C4B10B51A6810231A400B4B00D11A601A68802A0DD100240220211C1C60FFF7A3FFA04205D0211C6B
:400540000220FFF79DFFFFF787FF10BD00030B40C0000020F8B5051C291C0320FFF790FF291C041C0420FFF78BFF671CFF013F18291C0320FFF784FF00240130C001261C79
:40058000B84209D203785A1ED2B2FD2A00D801261C19E4B20130F3E70120291CFFF770FF6442E4B20623844203D17242564176423340181CF8BD0000F0B5A44CA544FFF756
:4005C0007DFE62B600260096002506AC03AE9621201C4900321CFF23FFF786FE0028F4D13188062900D88AE022780423012A54D1E778A2783F021743E2195679B44616796F
:400600000196FE1D8E427FD89279172A45D1FB189BB2002B08D09CA98D4ECA1892191278013B801880B2F3E7019B614640420A0280B21A43082382422FD167E0342B00D040
:400640009DE0009901295AD1032F58D151A80021802200F0D8FC802551A948192639ED19FA1EFF39ADB200F0C5FC832D49D1A079637900021843774B36021B6880191A68BB
:4006800080B2D3099BB2560601D001339BB298427BD20127009700250A2300210120207068466A46437681766B4600200E32D8760B1D11809BB29CAFFE18654F013BF61954
:4006C00036789BB2801980B2002BF4D19CAE624F7318DE194042614F80B23070DE19000A30705F4807311B181720187089B2201C9623FFF7EBFD68E7009E012E1BD0042315
:40070000CBE70126009600250323C6E763782679181C31380A2801D90523BEE700F03AFCECFF1400FCFF8EFF3F00FCFF430054008EFF63008B00002FE1D1381CFFF70AFF35
:4007400043424341237173E000980128D7D1012FD5D1002ED3D13F4B1B681B68DA0BD2B2DB09DBB2002A01D080235B0023711B0A6371FF23A3710023E37104218EE7009BA6
:40078000012BBCD1022FBAD966E751A900F048FA002800D07DE701260096051C12E0009F012FACD110E7009E012EA8D19623EE195B009E42A8D851A948193A1C07A900F0C2
:4007C00019FCB5B2002368E7002F98D104AB254A191C41CA41C107AA41CB41C2012600963B1C08215AE70098012888D1032F86D1A37962791B021A43310251180192C901C8
:4008000000208022FFF729FE071C002E0ED10199FF290BD1311C0520FFF732FE311C3F1A0620FFF72DFEFFB23F1AFFB27F4227710023012132E70020FFF78CFE002802D179
:40084000094B80221A6000F0FDFA58E78CFDFFFFA7FDFFFFD4000020ACFDFFFFADFDFFFFAEFDFFFF48100000C000002038B50020FFF770FE0025A84200D00625124C00209C
:400880002368C0211A68C03AFFF7E7FD62681378181AC0B2984203D123681B68002B02D1002000F0CDFA094B19681A1C402901D0002D03D000231360FFF77EFE80221A6083
:4008C00000F0C0FA38BDC046D4000020C000002008B5054B8022196812060A431A600A2000F09AFA08BDC0460000064010B5054C2378002B03D100F0BFF801232370FFF7AD
:40090000E7FF10BD10010020094B0A4A1968136899420BD011684B1C4039481E814149420B400549C85C1360C0B200E000207047B0010020280100206C010020064B074ACB
:400940001B6811688B4202D31068181A02E012684133981A7047C046B0010020280100200C4A0D4B002130B5106811601D68802464022C431C601D68084C2C401C60084BAB
:400980001C68084B1C60084B19700849084B1960106030BDC80F064004030640FFFFFEFF28010020B0010020AD010020ED0F0000C00F0640124910B50A68531C3F3A541E44
:4009C000A241524213400F4A1468A342FBD00C681268944208D10C4A14680F222240082A02D00A4B18600AE0094C02222260094CC0B2E0540B60084B19680A431A6010BD22
:400A000024010020200100200802064040020640800F06402C010020880F064038B5041C4518AC4204D02078FFF7C4FF0134F8E738BD00000B4A0023116810B513600A4B55
:400A400080201C684002204318601C68074820401860074B1868074B186002239943116010BDC046880F064004020640FFFFFEFF20010020240100201D4A1E4B10B51A60F0
:400A80001D4B00241C601D4B01221A601C491D4B07200B601C4908601C490A200C601C490A601C4A13601C4B1C6000F0BFF90A20032100F091F919490A2000F081F9184BAE
:400AC00004221C60174B1C60174B1C60174B1C60174B1A60174B1C60174B1C60174B1C60174B1C70174B1C60174B1C6010BDC0460B00000200000640400006404800064060
:400B0000000306400700008004030640100306404400064000020640040206409D0E0000880E0640C80E0640480F0640080F0640C80F0640880F0640B00100202801002070
:400B4000AD01002024010020200100200E4B8422D2041A601968802252020A431A600B490B4A0A60196819600A4BC32189001960094B00211960094B1C211960084B1A6087
:400B8000084A094B1A60704700010540080105401027000024010540380105402801054014010540881300000C01054008B500F02DF8044B01211A680A431A6000F02AF858
:400BC00008BDC0460000054010B5054C2378002B03D1FFF7BBFF01232370FFF7E7FF10BD18010020024B18680006C00F7047C04604000440000000000230800804D0C046B1
:400C00000138FDD1C046C046C0467047EFF3108072B6704780F310887047C046C046C046F0B50024CBB0069404900794FF2800D9A4E0A14200D1A1E008AD8022281C00F06E
:400C4000D9F9231C211C221C029498002858002802D01218014302930133202BF5D1002A05D1002900D08EE00191039102E0002001900390484F7F2328AE291C80222AA87D
:400C80002897464C736000F0B5F9454A454B266013602168090F0A2903D022680F23134000E000230693069F002F69D1FFF7AEFF3D4A3E4B116807971960069B0590002B56
:400CC00014D13B4A04982892289A01040A43289228AA22603249374A0A602268120F0A2A03D02E4B1A680F2313400693069F002F38D1019A002A35D0391C8022281C00F00F
:400D000082F90298039A08A983005A50224B2AA8289380227F23736000F06CF9214820492660086023681B0F0A2B03D01B4B1F680F231F400697069B002B13D11E4A049871
:400D40002892289A01040A43289215491B4A26600A602268120F0A2A03D0104B1A680F2313400693079B002B04D1104A0E481268026007930598FFF74DFF01E00423069343
:400D800006984BB0F0BD02998B00E85801210390EA5001916EE7C046B6D7000008000040040000400400008008010B401C010020B6D8000005000080B6D900000600008055
:400DC0001F2800D901BE034A80008318186819607047C0464000002038B5041C0D1E032D00D901BE1F2C00D901BEFFF70FFFA308084A9B009B18032214409440196806345C
:400E0000A2409143A5400C1C2C431C60FFF702FF38BDC04600E400E01F23184001238340181C014B1860704700E100E01F23184001238340181C014B1860704780E100E0EC
:400E400001BE7047034B04491A6892B20A431A607047C0460CED00E00400FA0510B5041C8022074B1202944205D91868FFF7C4FE044BE418F4E758686043FFF7BDFE10BD5B
:400E8000DC0000200080FFFF08B5034B1B7A5843FFF7B2FE08BDC046DC000020274B10B51B68002B00D09847254B1B685A071DD5244B1B681A0716D0234B244A1868116868
:400EC0004B1C40394C1EA14149420B40204909688B4203D11F4B20221A70E9E71E49C0B2C8541360E4E71D4B04221A601C4B1B689A0721D51B4B1A680F231340082B18D02B
:400F0000194B1A4A1968136899420DD011684B1C3F39481E814149420B401549C85C1549C0B208601360E5E7134B02211A688A431A60124B02221A6010BDC0461401002099
:400F4000CC0F06400803064040030640B001002028010020AD0100206C010020C00F06408C0F06400802064024010020200100202C01002040020640880F0640800F0640AE
:400F800002B4714649084900095C49008E4402BC7047C04603B47146490840004900095E49008E4403BC704770B50E4B0E4D0024ED1AAD101E1CAC4204D0A300F358984765
:400FC0000134F8E700F044F8084B094D0024ED1AAD101E1CAC4204D0A300F35898470134F8E770BD5C1000005C1000005C1000006410000010B50023934203D0CC5CC4548E
:401000000133F9E710BD031C8218934202D019700133FAE770470000A8100000EE0000000000000001330F4003410F4004430F4002600F40E61062048E04D84018808C40AD
:40104000C608E608020111019311C804111E0101F8B5C046F8BC08BC9E4670474D02000005040000F8B5C046F8BC08BC9E4670472502000088100000D0000020200000004B
:40108000C80000000000000000000000181000001C1000000000E02EC05D00001800000000366E01000000000000000000000000000000000000000000000000000000002C
:4010C00000000000000000000000000000000000000000000000000000000000000000000000000000000000000000000000000000000000000000000000000000000000F0
:401100000010002011110000551800005518000080B500AF024B83F3088800F0A5FBC0460010002080B500AF1A4B1A4A12688021C9020A431A60182000F04CFD154B154AFC
:40114000126815490A401A60144B154A1A60154B20221A60144B10221A60144B21221A60134B802212061A600A4B00221A60114B114A1A60114B124A1A60124B124A1A603F
:40118000124B134A1A60134B00221A60C046BD4680BDC04600010B40FFFFFBFF04010B4006000080080202400C0202403002024008010B40000002400200008040000240F1
:4011C000100000800400024076010080440002403F0100C00C020B4080B582B000AF72B6414B01221A70FB1D00221A7022E0FB1D1A7813005B009B185B003C4A9B183B600C
:401200003B681A78597809020A43997809040A43DB781B06134318003B681A795B791B0213439BB2190000F0BDFAFB1D1A78FB1D01321A70FB1D1B78012BD8D92C4A2D4B84
:401240001100180000F0BEFA2B4B2C4A1A602C4B99221A602B4B992212041A602A4B992212041A60294B992212041A60284B294A1A60294B01221A60284B02221A60284A57
:40128000274B1B78DBB23C218B43DBB214210B43DBB21370234A234B1B78DBB216210B43DBB21370204B80221A60204B8022D2031A601F4BC02252031A601E4B02221A60BC
:4012C0001D4B1E4A1A601E4B02221A601D4B31221A601D4B02221A60FFF724FF00F0B4FAC046BD4602B080BD1C700F403C28000060280000482800000C000140FFFF000031
:401300001000014000500F4010500F4030500F40D8320F40040404C42000004000800F4001700F4000700F4000000440080004400801044000030440080304407102000082
:4013400000040440080404401804044010B5064C2378002B07D1054B002B02D0044800E000BF0123237010BD500100200000000074270000084B10B5002B03D00749084842
:4013800000E000BF07480368002B00D110BD064B002BFBD09847F9E7000000005401002074270000D00000200000000080B500AF00F0A8FE2A4B180000F00CFE294B180078
:4013C00000F042FF62B600F0F1FA00F02BFF002000F0D2F901F07AF9031E11D101F032F800F098FF204B00221A70204B04221A6000F0E2FD0300DB43DBB2180000F0B4FD73
:40140000194B1B78012B1ED1194B00221A70194B180000F03BF90300012B07D1154B180000F02CF803001A00114B1A70104B1B78180000F0A1F900F07BF90B4B00221A705E
:401440000A4B04221A6000F07DFB02000A4B1A60094B1B682F2BBDD100F0B0FBBAE7C0465D160000791600006D010020C00F07406C01002070010020A001002080B584B04F
:4014800000AF78600F23FB1800221A700FE00F23FB181B787A68D3181B78180000F0C6FA0F23FB181A780F23FB1801321A700F23FB181B78172BEAD9554B180000F062FB0A
:4014C000544B1B7E1A000123134003D0524B180000F058FB4F4B1B7E1A000223134003D04E4B180000F04EFB4A4B1B7E1A000423134003D04A4B180000F044FB454B1B7E3C
:401500001A000823134003D0464B180000F03AFB404B1B7E1A001023134003D0424B180000F030FB3B4B1B7E1A002023134003D03E4B180000F026FB364B1B7E1A00402330
:40154000134003D03A4B180000F01CFB314B1B7E5BB2002B03DA374B180000F013FB2D4B5B7E1A000123134003D0334B180000F009FB284B5B7E1A000223134003D02F4B75
:40158000180000F0FFFA234B5B7E1A000423134003D02B4B180000F0F5FA1E4B5B7E1A000823134003D0274B180000F0EBFA194B5B7E1A001023134003D0234B180000F0DD
:4015C000E1FA144B5B7E1A002023134003D01F4B180000F0D7FA0F4B5B7E1A004023134003D01B4B180000F0CDFA0A4B5B7E5BB2002B03DA174B180000F0C4FA164B180023
:4016000000F0C0FA01231800BD4604B080BDC04678270000700100207C270000842700008C270000942700009C270000A4270000AC270000B4270000C0270000C8270000CC
:40164000D0270000DC270000EC270000F8270000002800000C2800001828000080B500AF00F082FD03001A000123134001D000F05BFDC046BD4680BD80B500AF024B012208
:401680001A70C046BD4680BD6D01002090B58BB000AF7860C04600F01DFE01001B2200238A425B41DCB200F015FE02001C2393429B415B42DBB22340DBB2002BEBD1002344
:4016C0007B620CE000F0DEFD0300D9B20823FA187B6AD3180A1C1A707B6A01337B6200F0F9FD031EEED10823FB181B78012B19D10823FB18DB7E172B14D101237B620CE0BD
:401700007B6A013B7A68D3180822B9187A6A8A1812781A707B6A01337B627B6A1B2BEFD9012300E000231800BD460BB090BDC046B0B500AFC04600F0CDFD01001B220023B8
:401740008A425B41DCB200F0C5FD02001C2393429B415B42DBB22340DBB2002BEBD100F0D9FD044B0321180000F052FEC046BD46B0BDC0463828000080B582B000AF786073
:4017800000F060FE7B68DAB2054B5A70044B0321180000F03DFEC046BD4602B080BDC046D400002080B582B000AF786039603A687B680021180000F0D5FFC046BD4602B0E6
:4017C00080BDC04680B586B000AF7860396000233B6100237B612FE07B699B007A68D3181B68BB600F23FB18BA681A70BB68FF229343BB6018E03B695B003A68D3181B7827
:401800001A00BB68D31819003B695B003A68D3185B780B703B6901333B610F23FB181A780F23FB18013A1A700F23FB181B78002BE1D17B6901337B617B69052BCCD9C046D0
:40184000BD4606B080BDC04680B500AFC046BD4680BDC04680B500AF00F058FF03001B680C2B00D1FEE7FEE780B586B000AF224B7B61224B3B61204B7B6135E03B691B68CA
:40188000FB603B695B68BB603B699B683B6000237B600CE0FB681A68BB681A60BB680433BB60FB680433FB607B6804337B607A683B689A42EED13B69DB683B6000237B609E
:4018C00008E0BB6800221A60BB680433BB607B6804337B607A683B689A42F2D13B6910333B617B69013B7B617B69002BC6D100F013FFFFF75BFDFEE7010000009C29000093
:4019000080B582B000AF00237B600FE07B68032B04D8144B7A689200D35800E0124B134A796889008B507B6801337B607B682F2BECD9FFF751FC0E4B00221A600D4B1B68D3
:40194000002B02D10B4B00221A608023DB058022D205126801210A431A60C046BD4602B080BDC046001100005518000000000020C8000020C000002080B500AF00F06CF87C
:40198000C046BD4680BDC04680B500AF064B064A1268802109060A431A6000F019F800F01DF8C046BD4680BD0000064080B500AF064B1B78002B04D1FFF7DEFF034B0122C7
:4019C0001A70FFF7E1FFC046BD4680BD9001002080B500AFC046BD4680BDC04680B500AF00F098F8C046BD4680BDC04680B582B000AF00237B60044B1B687B607B681800F4
:401A0000BD4602B080BDC0464003064080B582B000AF054B1B680F2213407B607B681800BD4602B080BDC0460803064080B582B000AF7860C046064B1B680F221340082B1A
:401A4000F9D0044B7A681A60C046BD4602B080BD080206404002064080B500AF1A4B1B4A1A601B4B00221A601A4B1B4A1A601B4B1B4A1A601B4B07221A601B4B00221A6064
:401A80001A4B01221A601A4B154A1A60194B00221A60194B00221A60184B00221A60184B00221A60174B00221A60174B00221A60164B00221A60154B1B689AB2144B1A80C7
:401AC000C046BD4680BDC046000006400B000002400006404800064001000A0000030640070000800403064010030640440006400002064004020640880E0640C80E06409C
:401B0000480F0640080F0640C80F0640880F06409201002080B500AF074B074A1268F0218A4390210A431A60044B054A12881A60C046BD4680BDC04610000140880F06407B
:401B40009201002080B582B000AF00237B60FFF75DFF031E03D0FFF749FF03007B60084B1A68D8239B00134005D000237B60044BD82292001A607B681800BD4602B080BD69
:401B8000C00F064080B584B000AF78600023FB6009E07A68FB68D3181B781800FFF746FFFB680133FB607A68FB68D3181B78002BEFD1C046BD4604B080BDC04680B500AF1F
:401BC000034B40221A6000F0A9F9C046BD4680BDC000002090B585B000AF78600C23FC1800F08CFD030023707B68022B00D8AFE07B68302B00D9ABE05C4B1B78DBB21A00B6
:401C00007B689A420AD35A4A0F23FB1812781A70584A0E23FB1812781A703FE0564B1B78DBB21A007B689A420AD3544A0F23FB1812781A70524A0E23FB1812781A702DE083
:401C4000504B1B78DBB21A007B689A420AD34E4A0F23FB1812781A704C4A0E23FB1812781A701BE04A4B1B78DBB21A007B689A420AD3484A0F23FB1812781A70464A0E2302
:401C8000FB1812781A7009E0444A0F23FB1812781A70434A0E23FB1812781A707B68DA1E0B23FB183F498A5C1A700B23FB181B782F2B0DD97B682A2B0AD93B4B19221A60CA
:401CC000052000F011FD0D23FB1819221A7007E0354B1B68DAB20D23FB183F210A401A700B23FA180D23FB1812781B789A4208D22D4B7A68033A2B498A5C1A60052000F0F6
:401D0000F3FC2A4B7A6826498C4662441278D2B21A60274B0F22BA1812781A60254B0E22BA1812781A60052000F00AF90B23FA180D23FB1812781B789A420CD91A4B7A683F
:401D4000033A18498A5C1A60052000F0CDFC02E0002000F0D7F80C23FB181B78180000F0D1FCC046BD4605B090BDC046C0F1FF0FC1F1FF0FC2F1FF0FC3F1FF0FC4F1FF0F46
:401D8000C5F1FF0FC6F1FF0FC7F1FF0FC8F1FF0FC9F1FF0FCAF1FF0FCBF1FF0FCCF1FF0FCDF1FF0F482900002CFF0B4028FF0B401CFF0B4020FF0B4080B584B000AF0200D8
:401DC0003960FB1D1A7080239B05FB60FB1D1B781F2B02D9002000F095F8FB1D1B7810339B00FA68D3181B68BB60FB1D1B7810339B00FA68D3183A681A60BB681800BD46F9
:401E000004B080BD90B587B000AF0200FB1D1A70BB1D0A1C1A70BB1D1B78032B02D9002000F070F8FB1D1B781F2B02D9002000F069F8FB1D1B7803221340DB0006337B611A
:401E40001323FC1800F05AFC03002370FB1D1B789B08DBB29B00144A944663441B68FB6003227B699A401300DA43FB681340FB60BB1D1A787B699A401300FA681343FB6097
:401E8000FB1D1B789B08DBB29B00074A94466344FA681A601323FB181B78180000F032FCC046BD4607B090BD00E400E080B582B000AF0200FB1D1A70064BFA1D12781F212F
:401EC0000A40012191400A001A60C046BD4602B080BDC04600E100E080B582B000AF0200FB1D1A70064BFA1D12781F210A40012191400A001A60C046BD4602B080BDC046B7
:401F000080E100E080B582B000AF0200FB1D1A7001BEC046BD4602B080BDC04680B500AF054B054A12681204120C04490A431A60C046BD4680BDC0460CED00E00400FA057C
:401F400080B582B000AF0200BB1D1A80BB1D1B88044A12785343180000F0C6FBC046BD4602B080BDE000002080B584B000AF0200FB1D1A700F4B1B68DAB20F23FB18402162
:401F80008A431A70FB1D1B789B01DBB240221340D9B20F23FB180F22BA1812780A431A70044B0F22BA1812781A60C046BD4604B080BDC0460001044080B500AF044B1B68BC
:401FC000402213409B09DBB21800BD4680BDC0460401044080B582B000AF786000F04EF87B68180000F00AF8032000F015F800F03BF8C046BD4602B080BDC04680B582B09B
:4020000000AF7860034B7A681A64C046BD4602B080BDC0460000002090B585B000AF0200FB1D1A700623FB600B23FC1800F066FB030023700B4B0B4A1268C0218A431100EF
:40204000FA1D1078FA68904002000A431A600B23FB181B78180000F055FBC046BD4605B090BDC04600E400E080B500AF024B01221A60C046BD4680BD00E100E080B500AF0C
:40208000024B01221A60C046BD4680BD80E100E090B583B000AF9023FF33180000F06EF89023FF33180000F083F8FC1D00F026FB030023700A4A0A4B1B78DBB210210B43C5
:4020C000DBB21370FB1D1B78180000F01BFB00F07FF8012000F038F8C046BD4603B090BD93000F4080B500AF0549054B1B78DBB2802252421343DBB20B70C046BD4680BDF8
:4021000073000F4080B500AF064B1B78002B04D1FFF7BEFF034B01221A70FFF7E3FFC046BD4680BD9401002080B500AF054A054B1B78DBB27F210B40DBB21370C046BD46ED
:4021400080BDC04673000F4080B582B000AF0200FB1D1A70034AFB1D1B781370C046BD4602B080BD83000F4080B500AF024B1B78DBB21800BD4680BD63000F4080B582B099
:4021800000AF0200BB1D1A80034ABB1D1B881380C046BD4602B080BD44100F4080B500AF024B1B889BB21800BD4680BD84100F4080B582B000AF0200BB1D1A80034ABB1DFB
:4021C0001B881380C046BD4602B080BD04100F4080B500AF01E0FFF7E1FFFFF7C5FF03001A0008231340F6D1C046BD4680BDC04680B500AF00F05AF9C046BD4680BDC046D8
:4022000080B500AF064B064A1268802109060A431A6000F027F800F02DF8C046BD4680BD0000074080B500AF064B1B78002B04D1FFF7DEFF034B01221A70FFF7E1FFC04605
:40224000BD4680BD9801002080B582B000AF7860034B7A681A60C046BD4602B080BDC0469C01002080B500AF0B20FFF71FFEC046BD4680BD80B500AF00F08EF9C046BD4646
:4022800080BDC04680B582B000AF00237B600E4B1A680E4B1B689A4211D00C4B1B6801333B603B68292B01D100233B60084A3B68D3181B78DBB27B60044B3A681A607B68FA
:4022C0001800BD4602B080BD08020020DC010020AC01002080B582B000AF0C4B1B683B600B4B1B683A689A4205D3094B1B683A68D31A7B6005E0064B1B683A68D31A293341
:402300007B607B681800BD4602B080BD08020020DC01002080B500AF0B20FFF7DDFD0E4B1A680E4B1A600E4B00221A700D4B0D4A1268802149020A431A600A4B094A12681E
:4023400009490A401A60094B094A1A600B20FFF7ADFDC046BD4680BDDC01002008020020A801002004030740FFFFFEFFC00F0740ED0F000080B584B000AF78601D4B1A68F0
:402380001D4B1B689A4209D11C4B1B680F221340082B03D01A4B7A681A6026E0154B1B680133FB60FB68282B01D10023FB60C046114B1B68FA689A42FAD0124B02221A60E1
:4023C0007B68D9B2104AFB68D3180A1C1A70094BFA681A600D4B1B680222134005D10B4B0A4A126802210A431A60C046BD4604B080BDC046A4010020D801002008020740A2
:4024000040020740800F0740E0010020880F074080B584B000AF786039600023FB6009E07A68FB68D3181B781800FFF7A3FFFB680133FB60FA683B689A42F1D3C046BD465B
:4024400004B080BD80B500AF0B20FFF745FD104B1A68104B1A60104B0F4A126802218A431A600E4B0D4A1268802149020A431A600A4B0A4A12680A490A401A60094B0A4A1B
:402480001A600B20FFF712FDC046BD4680BDC046D8010020A4010020880F074004020740FFFFFEFF800F0740F307000080B500AF234B244A1A60244B0D221A60234B244A44
:4024C0001A60244B00221A60234B244A1A60244B01221A600B20FFF7FFFC03210B20FFF791FC204B19000B20FFF766FC1E4B00221A601E4B00221A601D4B00221A601D4B8A
:4025000000221A601C4B04221A601C4B00221A601A4B1B689AB21A4B1A801A4B00221A60194B00221A60194B00221A70184B00221A60184B00221A60C046BD4680BDC04667
:40254000000007400700000120000740000307400703008004030740000207400701008004020740B5250000880E0740C80E0740480F0740080F0740C80F0740880F074099
:402580009A01002008020020DC010020A8010020A4010020D801002080B500AF034B044A12881A60C046BD4680BDC046880F07409A01002080B582B000AF334B1B68002BF7
:4025C00002D0314B1B689847304B1B680422134026D02F4B1B6801337B607B68292B01D100237B602B4B1B687A689A4205D12A4B1B682A4B20221A700AE0274B1B68D9B27B
:40260000274A7B68D3180A1C1A70214B7A681A60244B1B680F221340DBD1234B04221A60224B1B680222134029D0214B1A68214B1B689A4213D01F4B1B6801333B603B6858
:40264000282B01D100233B601B4B1C493A688A181278D2B21A60174B3A681A6006E0184B174A126802218A431A6005E0154B1B680F221340082BD8D1134B02221A60C046AA
:40268000BD4602B080BDC0469C010020CC0F074008020020DC01002040030740A8010020AC01002008030740C00F07408C0F0740A4010020D801002040020740E00100206A
:4026C000880F074008020740800F074080B500AF044B1B6880221340DB09DBB21800BD4680BDC046040004400230800804D0C0460138FDD1C046C046C0467047EFF310803D
:4027000072B6704780F310887047C046014B18687047C0464C0100200E4B70B500251E000D4CE41AA410A54204D0AB00F35898470135F8E700F020F9084B00251E00084C98
:40274000E41AA410A54204D0AB00F35898470135F8E770BD8429000084290000842900008C29000003008218934202D019700133FAE770470000000020202000504C4159EA
:402780004552200069524144494F20004441422000000000415558494E200000434C4F434B2000005244532F464D200042545F52582000004354524C313D307838302000F5
:4027C00042545F54582000004F4E4C494E4520005349474C4556454C2000000053504543414E414C595A455220000000434C4F434B20312000000000434C4F434B2032006C
:402800004354524C323D3078343020004354524C323D3078383020000D0A0000000000000000000000000000000000000000000000000000000000000000000000300F405E
:40284000000400400F40000401000F4045320F4027330F4002400F4003410F4002600F40830D4065410149FF4AFF4BFF4F0150185A045F016040624064406540668068800C
:402880006A806C806E80800E8220840286108C088E508F01920E9302960198049A509C3EA302B030B101B240B40EB501B601B702BF40C025C101C5ECC720C823C9FFCAFF0F
:4028C000CBFFCD83CE03CF01D018D280D401D604D804D904DA04DB04DF05E040E240E440E540E680E880EA80EC80EE8000040102020109200A51180419021A191B80212267
:4029000022402A01310233C03B4040044380474049054A024E06520359055A806380724073407B808340C00DC20FCA01CC01CE08D01CD238D60BD801DE016F10DA80831053
:402940009F10E22001011001030405060708090A0B0C0E0F101112131415161718191B1C1D1E1F2021222325262728292A2B2E2F3031323334354300F8B5C046F8BC08BC35
:402980009E4670477513000001190000F8B5C046F8BC08BC9E4670474D130000B0290000D000002080000000C000000000000000000000000100170000366E01C05D0000D1
:4029C000180000000000E02E010000000000000000000000000000000000000000000000000000000000000000000000762900000000000000000000000000000000000011
:402A00000000000000000000000000000000000000000000000000000000000000000000000000000000000000000000EC000020000000000000000000000000000000008A
:402A40000000000000000000000000000000000000000000000000000000000000000000000000000000000000000000000000000000000000000000000000000000000056
:402A80000000000000000000000000000000000000000000000000000000000000000000000000000000000000000000000000000000000000000000000000000000000016
:402AC00000000000000000000000000000000000000000000000000000000000000000000000000000000000000000000000000000000000000000000000000000000000D6
:402B00000000000000000000000000000000000000000000000000000000000000000000000000000000000000000000000000000000000000000000000000000000000095
:407FC000A61111000021000000801900000000000000010000000000000000000000000080000000000000000000000000000000000000000000000000000000000000007E
:0200000490303A
:0200000067EDAA
:0200000490402A
:20000000FFFFFFFF00000000000000000000000000000000000000000000000000000000E4
:0200000490501A
:0C000000000204C81193110004D579809F
:0200000490600A
:0100000001FE
:00000001FF